:020000040800F2
:10000000B01C00201D030008D3150008CB15000804
:10001000CF150008D1080008A11C0008000000004E
:100020000000000000000000000000005D02000869
:10003000D508000800000000B90200089117000868
:1000400037030008370300083703000837030008A8
:100050003703000837030008370300083703000898
:100060003703000837030008370300083703000888
:100070003703000837030008370300083703000878
:100080003703000837030008370300083703000868
:100090003703000837030008370300083703000858
:1000A0003703000837030008370300083703000848
:1000B00037030008B91700083703000837030008A2
:1000C0003703000837030008370300083703000828
:1000D00037030008511C00083703000837030008E5
:1000E0003703000837030008370300083703000808
:1000F00037030008370300083703000837030008F8
:1001000037030008370300083703000837030008E7
:1001100037030008370300083703000837030008D7
:1001200037030008370300083703000837030008C7
:1001300037030008370300083703000837030008B7
:1001400037030008370300083703000837030008A7
:100150003703000837030008370300083703000897
:100160003703000837030008370300083703000887
:100170003703000837030008370300083703000877
:100180003703000837030008370300083703000867
:100190003703000837030008370300083703000857
:1001A00000000000000000003703000800F002F823
:1001B00000F044F80AA090E8000C82448344AAF1BD
:1001C0000107DA4501D100F039F8AFF2090EBAE8BB
:1001D0000F0013F0010F18BFFB1A43F0010318477B
:1001E000C83F0000E83F0000103A24BF78C878C13B
:1001F000FAD8520724BF30C830C144BF04680C602D
:10020000704700000023002400250026103A28BF74
:1002100078C1FBD8520728BF30C148BF0B60704778
:10022000642900F07D81732900F0B28200207047BC
:100230001FB503F0A7FF1FBD10B510BD00F016FBE2
:100240001146FFF7F5FF01F0F7FE00F034FB03B4B1
:10025000FFF7F2FF03BC01F041FD00002C4B1968D1
:100260000868B0E8F04F80F30988BFF36F8F4FF054
:10027000000080F311887047000000000848006803
:10028000006880F308884FF0000080F3148862B69D
:1002900061B6BFF34F8FBFF36F8F00DF00BF00BFAA
:1002A00008ED00E0DFF80C00016841F47001016026
:1002B000704700BF88ED00E0EFF30980BFF36F8F58
:1002C000134B1A681EF0100F08BF20ED108A20E9AA
:1002D000F04F106009B44FF0500080F31188BFF365
:1002E0004F8FBFF36F8F03F041F84FF0000080F3A2
:1002F000118809BC19680868B0E8F04F1EF0100FAB
:1003000008BFB0EC108A80F30988BFF36F8F704785
:100310002C000020EFF3058070470000094880475B
:1003200009480047FEE7FEE7FEE7FEE7FEE7FEE7D7
:10033000FEE7FEE7FEE7FEE704480549054A064BEF
:1003400070470000A5170008AD010008B016002096
:10035000B01C0020B0180020B0180020704753EAED
:10036000020C00F069802DE9F04B4FF00006002BE5
:100370001FBFB3FA83F503FA05F424FA05F65E40CD
:1003800012BF1643B2FA82F502FA05F4C5F1200550
:100390001EBF22FA05FC44EA0C04203556EA044C40
:1003A0004FEA144418BF641C4FF000084FF00009D6
:1003B000904271EB030C39D3002919BFB1FA81F7D0
:1003C00001FA07F6B0FA80F700FA07F6C7F120073E
:1003D0001EBF20FA07FC46EA0C062037B6FBF4FCE9
:1003E000A7EB0507103F07F01F0BCBF120060CFA17
:1003F0000BFB2CFA06F644BFB3460026202FA4BF01
:100400005E464FF0000B5BEA060C08BF4FF0010B95
:1004100019EB0B09ABFB027C48EB0608C01B06FB83
:1004200002CC0BFB03CC71EB0C01C1E70B4602467F
:1004300041464846BDE8F08B13B54FF000004FF041
:100440000001AFF30080BDE81C4070470FB40449C1
:1004500010B503AA029800F09FF910BC5DF814FBD8
:10046000180000202DE9F0410E46044600202062CD
:100470002046E168884730B3252805D0D4E901211A
:100480009047206A401CF2E7E16820460027884731
:10049000050018D0A5F14100192802D820354FF4E5
:1004A00000673246294620462760FFF7B9FE40B173
:1004B000012804D0F61D26F007060836D8E7361DB9
:1004C000D6E72846DAE7206ABDE8F08170B50C4629
:1004D0000546012A05D02878800600D5EA69002360
:1004E00002E0012305E05B1C934202D2E05C00289D
:1004F000F9D1A869E618C01AA861286A18442862C8
:100500002846AFF3008004E0D5E9012114F8010B7F
:100510009047B442F8D32846AFF3008070BD000086
:100520002DE9F0410646002410687529314616A5CC
:1005300010D0AFF30080002802DA404213A507E094
:1005400031688A0701D512A502E0490704D511A533
:10055000012401E0AFF3008000210A2206F1240704
:1005600009E0B0FBF2FCB0FBF2F302FB1C00303000
:1005700078541846491C0028F3D123462A463046B1
:10058000BDE8F04100F080B8000000002D00000040
:100590002B00000020000000032A40F2308010F001
:1005A000030C00F0158011F8013BBCF1020F62440E
:1005B00098BF11F801CB00F8013B38BF11F8013B9F
:1005C000A2F1040298BF00F801CB38BF00F8013B4C
:1005D00011F0030300F0F280083AC0F0088051F8EF
:1005E000043B083A51F804CBA0E80810F5E7121DC7
:1005F0005CBF51F8043B40F8043BAFF30080D207E6
:1006000024BF11F8013B11F801CB48BF11F8012BB1
:1006100024BF00F8013B00F801CB48BF00F8012BD4
:10062000704702F0FF0343EA032242EA024200F06D
:10063000F9B84FF0000200B51346944696462039AB
:1006400022BFA0E80C50A0E80C50B1F12001BFF48B
:10065000F7AF090728BFA0E80C5048BF0CC05DF8F1
:1006600004EB890028BF40F8042B08BF704748BF3F
:1006700020F8022B11F0804F18BF00F8012B7047B3
:1006800070477047704770472DE9F0470D4699460F
:100690009246044600F124080168880604D5E06902
:1006A00021F01001216000E00120A84201DD471B7C
:1006B00000E00027A1697A1902EB0900081AA0617D
:1006C0002078C00602D42046AFF30080002608E060
:1006D000D4E901211AF806009047206A401C761CD4
:1006E00020624E45F4DB2078C0060AD52046AFF3E1
:1006F000008006E0D4E9012130209047206A401CA8
:100700002062381EA7F10107F4DC07E0D4E90121DB
:1007100018F805009047206A401C2062281EA5F1A9
:100720000105F3DC2046AFF300802078000602D5F7
:100730000220BDE8F0870120FBE7000001694A1CA8
:1007400002610878704700B58FB0CDE90131002112
:10075000059105497944CDE9031011466846FFF734
:1007600081FE0FB000BD0000E5FFFFFF10B543693B
:1007700013B1AFF3008001E0FFF7A8FE012010BD28
:10078000127800F124010A7000224A700122EDE77C
:1007900011684FF0FF32E9E7074B70B50D467B4417
:1007A000FFF7D1FF0446284600F05CF810B14FF087
:1007B000FF3070BD204670BDD715000010B5203A3F
:1007C000C0F00B80B1E81850203AA0E81850B1E80A
:1007D0001850A0E81850BFF4F5AF5FEA027C24BFC0
:1007E000B1E81850A0E8185044BF18C918C0BDE8B7
:1007F00010405FEA827C24BF51F8043B40F8043B80
:1008000008BF7047D20728BF31F8023B48BF11F834
:10081000012B28BF20F8023B48BF00F8012B70478E
:100820004FF000020429C0F0128010F0030C3FF4D6
:1008300002AFCCF1040CBCF1020F18BF00F8012B81
:10084000A8BF20F8022BA1EB0C01FFF7F4BE5FEA72
:10085000C17C24BF00F8012B00F8012B48BF00F831
:10086000012B7047007B00F080007047754600F058
:100870002BF8AE4605006946534620F00700854632
:1008800018B020B5FFF758FDBDE820404FF0000636
:100890004FF000074FF000084FF0000B21F0070168
:1008A000AC46ACE8C009ACE8C009ACE8C009ACE8AB
:1008B000C0098D46704710B50446AFF3008020464E
:1008C000BDE81040FFF7C3BC004870474C1600203D
:1008D00000BFFEE7704730B50246002300240868D9
:1008E000012816D013686FF30E03D1E901052843E0
:1008F000CD6828430D6928434D6928438D692843F5
:10090000CD6928430D6A28434D6A28430343136089
:1009100019E0136823F4F843D1E9070528434D6A29
:100920002843034354686FF30E04D1E901052843BB
:10093000CD6828430D6928434D6928438D692843B4
:10094000044313605460002030BD0246506940EA01
:100950004100506100207047F8B506460C46154628
:10096000002000900027D4E900010843A168491E37
:1009700040EA4110E16840EA41200090009830616F
:1009800000F0F4F9074609E0681C38B125B100F021
:10099000EDF9C01BA84201D90320F8BDB06900F0F1
:1009A00020002028F0D00020F7E7000070B50346B3
:1009B000154600220024012D1FD09A6802F07042D3
:1009C0000868401E4E68761E40EA06168868401E7B
:1009D00046EA0026C868401E46EA0036088A401EDD
:1009E00046EA0046888A401E46EA0056087E401EB7
:1009F00046EA006002439A6022E09A681148024089
:100A0000C868401E0603888A401E46EA005002431A
:100A1000DC6804F070440868401E4E68761E40EAA8
:100A200006168868401E46EA0026088A401E46EAE6
:100A30000046087E401E46EA006004439A60DC607F
:100A4000002070BDFF0F0FFF70B50446A56D00F0CC
:100A50008DF9064694F83500022808D0802060659C
:100A600000BF002084F8340000BF012070BD206862
:100A7000006820F01600216808602068406920F0B6
:100A8000800021684861206C08B9A06C28B12068FA
:100A9000006820F00800216808602068006820F0E5
:100AA0000100216808600FE000F060F9801B052854
:100AB0000AD92020606500BF002084F8340000BF00
:100AC000032084F83500D1E72068006800F00100B9
:100AD0000028E9D194F85C103F208840A86000BF4E
:100AE000002084F8340000BF012084F83500002085
:100AF000BCE7014691F83500022803D08020486504
:100B000001207047052081F835000868006820F052
:100B100001000A6810600020F3E70000F8B5024603
:100B20000B460025002400200021E8E0012606FAFB
:100B300001F51E6806EA0504AC4275D11E7906F07F
:100B40000306012E04D01E7906F00306022E13D1EF
:100B500090684F000326BE40B0434F00DE68BE40A1
:100B600030439060506801268E40B0431E79C6F332
:100B700000168E40304350601E7906F00306032EA7
:100B800009D0D0684F000326BE40B0434F009E6896
:100B9000BE403043D0601E7906F00306022E13D10A
:100BA000CF0802F1200656F827004E07F70E0F2651
:100BB000BE40B0434F07FF0E1E69BE403043CF0812
:100BC00002F1200646F8270010684F000326BE40B9
:100BD000B0431E7906F003064F00BE40304310605C
:100BE0005E6806F08056B6F1805FA6D100BF002691
:100BF0000096454E366846F48046434F3E603E467A
:100C0000366806F48046009600BF00BF3F4E8F084E
:100C100056F827008E07370F0F26BE40B0433C4ED4
:100C2000B24202D100262EE068E03A4EB24201D133
:100C3000012628E0384EB24201D1022623E0374E89
:100C4000B24201D103261EE0354EB24201D1042644
:100C500019E0344EB24201D1052614E0324EB242C0
:100C600001D106260FE0314EB24201D107260AE03B
:100C70002F4EB24201D1082605E02E4EB24201D1DC
:100C8000092600E00A268F073F0FBE4030431F4E63
:100C90008F0846F82700284E3068A0435E6806F4A7
:100CA0008036B6F5803F00D12043234E3060361D9C
:100CB0003068A0435E6806F40036B6F5003F00D108
:100CC00020431D4E361D3060361D3068A0435E68DF
:100CD00006F48016B6F5801F00D12043164E083664
:100CE0003060361D3068A0435E6806F40016B6F525
:100CF000001F00D12043104E0C363060491C1029D3
:100D0000FFF414AFF8BD0000443802400838014039
:100D1000000002400004024000080240000C0240B3
:100D2000001002400014024000180240001C024063
:100D30000020024000240240003C014002461369AA
:100D40000B400BB1012000E00020704710B5426954
:100D500021EA020302EA010443EA0443836110BD6D
:100D60000AB1816101E00B048361704701480068AA
:100D700070470000200000200348006803490978FC
:100D80000844014908607047200000202800002026
:100D900010B50A48006840F4007008490860084629
:100DA000006840F480600860032000F07FF80F20A6
:100DB00000F006F800F02AF8002010BD003C0240C8
:100DC00070B504460E4800784FF47A71B1FBF0F02C
:100DD0000C490968B1FBF0F5284600F0A0F908B10C
:100DE000012070BD102C07D200222146501E00F0B9
:100DF0001EF80548046001E00120F2E70020F0E75A
:100E00002800002000000020240000207047014638
:100E10000846002809DB00F01F0301229A4043091D
:100E20009B0003F1E023C3F8002100BF70472DE9C8
:100E3000F05F80460D461646002700F033FF074658
:100E400039462A46334601F00700C0F1070ABAF1D5
:100E5000040F02D94FF0040A01E0C0F1070AD1469D
:100E600000F1040ABAF1070F02D24FF0000A01E0C4
:100E7000A0F1030AD4464FF0010A0AFA09FAAAF1CE
:100E8000010A0AEA020A0AFA0CFA4FF0010B0BFAFD
:100E90000CFBABF1010B0BEA030B4AEA0B042146F6
:100EA000404600F007FFBDE8F09F000000BF00F0E3
:100EB0000702064B19684FF6FF031940044B0B431A
:100EC00043EA0221014B196000BF70470CED00E0BE
:100ED0000000FA050148006870470000000000208B
:100EE00000B5FFF7F7FF04490968C1F38221034AFF
:100EF000515CC84000BD0000083802409E41000817
:100F000000B5FFF7E7FF04490968C1F34231034A1E
:100F1000515CC84000BD0000083802409E410008F6
:100F200070B504460D460CB9012070BD94F82C0034
:100F300028B9002084F82D00204600F011F8022086
:100F400084F82C00211D2068FFF7C5FC2946D4E950
:100F50000002FFF72BFD012084F82C000020E4E7BD
:100F600010B586B0044600BF0020009043480068DA
:100F700040F00100414908600846006800F00100A7
:100F8000009000BF00BF00BF002000903B48083821
:100F9000006840F0040039490839086008460068D4
:100FA00000F00400009000BF00BF00BF00200090D0
:100FB0000846006840F0080008600846006800F035
:100FC0000800009000BF00BF00BF0020009008464E
:100FD000006840F0100008600846006800F010004B
:100FE000009000BF00BF00BF0020009008460068CE
:100FF00040F0200008600846006800F020000090E3
:1010000000BF00BF00BF002000900846006840F00D
:10101000400008600846006800F04000009000BFF3
:1010200000BF0D20019002200290012003900320B8
:1010300004900C20059001A91148FFF76FFD4CF2B8
:101040000370019001A90F48FFF768FD4FF6837008
:10105000019001A90C48FFF761FD4FF63F00019098
:1010600001A90A48FFF75AFD48F23710019001A97B
:101070000748FFF753FD06B010BD000038380240A6
:1010800000080240000C0240001002400014024020
:101090000018024070B504460D4694F82C00022852
:1010A00000D170BD022084F82C0029462068FFF78B
:1010B0004CFC012084F82C000020F2E770B50446B7
:1010C0000D46164694F82C00022800D170BD02206F
:1010D00084F82C00324629462068FFF73DFC28683A
:1010E000022803D1052084F82C0002E0012084F8B6
:1010F0002C000020EAE7042808D14FF0E02109691C
:1011000041F004014FF0E022116107E04FF0E021CF
:10111000096921F004014FF0E0221161704770B5B8
:1011200004462546681EB0F1807F01D301200FE000
:10113000681E4FF0E02148610F214FF0FF3000F0B2
:10114000B9FD00204FF0E0218861072008610020F0
:1011500070BD7047704701460022002391F83D2082
:1011600091F83E3042EA0300704700002DE9F84F45
:101170000446206805682068C668206847694FF003
:101180000009CA4605F00F09B9F1000F0AD105F0B0
:10119000200038B106F0200020B1204600F08FFB7F
:1011A000BDE8F88FB9F1000F72D007F0010018B94F
:1011B00006F4907000286BD005F0010030B106F401
:1011C000807018B1206C40F00100206405F004002C
:1011D00030B107F0010018B1206C40F0020020642B
:1011E00005F0020030B107F0010018B1206C40F0AA
:1011F0000400206405F0080048B106F0200010B992
:1012000007F0010018B1206C40F008002064206C49
:1012100070B305F0200028B106F0200010B1204680
:1012200000F04DFB20684069C0F3801A206C00F08C
:10123000080010B9BAF1000F23D0204600F014FBCB
:101240002068406900F04000402816D120684069BD
:1012500020F0400021684861A06B50B15648A16B56
:101260000865A06BFFF745FC10B1A06B016D8847C6
:101270000CE02046FFF76EFF08E02046FFF76AFF0C
:1012800004E02046FFF766FF0020206488E7FFE7C0
:10129000206B012879D105F01000002875D006F0E8
:1012A0001000002871D000BF002000902068006866
:1012B000009020684068009000BF00BF206840692F
:1012C00000F04000402839D1A06B006840681FFA48
:1012D00080F8B8F1000F30D0A08D40452DDDA4F886
:1012E0002E80A06BC069B0F5807F1FD02068C068D9
:1012F00020F480702168C8602068406920F00100F7
:10130000216848612068406920F0400021684861F8
:10131000202084F83E00002020632068C06820F070
:1013200010002168C860A06BFFF78EFBA08DE28DD6
:10133000801A81B22046FFF70CFF31E7A08DE18DC6
:10134000401A1FFA80F8E08DE8B1B8F1000F1AD00A
:101350002068C06820F490702168C86020684069E7
:1013600020F0010021684861202084F83E00002020
:1013700020632068C06820F010002168C8604146E2
:101380002046FFF7E6FE0BE7FFE705F0800030B1EF
:1013900006F0800018B1204600F029FC00E705F0B7
:1013A000400030B106F0400018B1204600F077FA56
:1013B000F6E600BFF4E600005518000810B5044634
:1013C0000CB9012010BDA06900B100E000BF94F885
:1013D0003D0028B9002084F83C00204600F028F8A1
:1013E000242084F83D002068C06820F40050216863
:1013F000C860204600F0C2FA2068006920F49040DE
:10140000216808612068406920F02A00216848614D
:101410002068C06840F400502168C8600020206443
:10142000202084F83D0084F83E000020CAE7000038
:1014300010B586B004462E492068884255D100BFB9
:1014400000BF002000902B48006840F010002949A0
:1014500008600846006800F01000009000BF00BF60
:1014600000BF00BF00BF0020009022481438006871
:1014700040F001001F49143908600846006800F078
:101480000100009000BF00BF00BF00BF00BF0020F0
:1014900000900846006840F00100086008460068B7
:1014A00000F00100009000BF00BF00BF4815019090
:1014B0000220029001200390022004900720059052
:1014C00001A90D48FFF72AFB4FF480600190072027
:1014D000059001A90848FFF721FB2520FFF797FC9D
:1014E000032211462520FFF7A2FC06B010BD000024
:1014F00000100140443802400000024070B504462C
:101500000D46164694F83E00202816D105B10EB9B6
:10151000012070BD00BF94F83C00012801D10220D9
:10152000F7E7012084F83C0000BF0020206332462A
:101530002946204600F038FBEBE70220E9E70000EF
:101540001D4A0168914236D11C49098801F40041C5
:1015500089BB1A49098801F4804171B11849097899
:101560000A2903D00021154A118024E01349098873
:1015700041F40041114A11801DE0114909780D29FB
:1015800006D10E49098841F480410C4A118012E0CD
:101590000B490978094A1288C2F30D02094B995484
:1015A00006490988491C054A118011460988C7293E
:1015B00001DD002111807047001001401C00002057
:1015C0001E000020D4100020704700BFFEE700BFBF
:1015D000FEE7704700B587B016481749086000203D
:1015E00048600121144881600821C1601021016117
:1015F000402141614FF4C07181610021C1614FF40C
:10160000006101624900416249008162022000904C
:10161000082001900620029003900220049005907B
:10162000069069460448FFF77BFC034800F006F883
:1016300007B000BD400100A02812002070B505468B
:101640000024002301221146184600F021F84FF42F
:10165000FA7000F06DFB002301220221184600F011
:1016600017F8002308220321184600F011F84FF460
:101670000C74234601220421002000F009F840F2F6
:10168000AB210248FFF706FD70BD000028120020C4
:101690002DE9FF4104460D4616461F464FF000084F
:1016A00014B94FF0100803E0012C01D14FF00808E5
:1016B0000095CDF80480029603974FF48052694656
:1016C0000448FFF7FBFC18B9002004B0BDE8F08126
:1016D0000120FAE7281200203EB5044601F0F2FA94
:1016E0001848194902220023CDE9002102908022E6
:1016F00016A1184802F084F91749086017481849DC
:1017000003220023CDE900210290802215A1174871
:1017100002F076F91649086016481749042200239A
:10172000CDE900210290802214A1164802F068F948
:10173000154908601548006801F07EFC01F00EFBB9
:101740003EBD000008050020080300205461736BB3
:1017500031000000E917000808000020640700209D
:10176000640500205461736B320000000918000802
:101770000C000020C0090020C00700205461736BDA
:101780003300000029180008100000200400002089
:1017900010B5FFF7F1FA02F09BF9012801D001F032
:1017A00017FF10BD0348006840F47000014908604D
:1017B0007047000088ED00E010B509480068006936
:1017C00000F0010058B100BF4FF480610548FFF7F9
:1017D000BDFA00BF6FF0010001490968086110BD42
:1017E000E0110020000002400AE000BF4FF4006159
:1017F0000448FFF7ABFA00BF4FF4FA7001F0DAFBD0
:10180000F3E70000000C02400AE000BF4FF48061E3
:101810000448FFF79BFA00BF4FF4FA7001F0CAFBCF
:10182000F3E700000000024000240FE0002000F079
:1018300051FB0446012C06D10548006818B1044844
:10184000006801F0F9FB0A2001F0B4FBEEE70000AC
:101850000800002070B50546AC6B0020E085E084F0
:101860002046FFF777FC70BD0168C96821F49071CC
:101870000268D1600168496921F001010268516183
:10188000016B012905D10168C96821F010010268C6
:10189000D160202180F83E1000210163704710B50F
:1018A00004462068C06820F040002168C8602020FD
:1018B00084F83D002046FFF787FE002010BD70B57C
:1018C000044694F83E00222856D1A068B0F5805F07
:1018D0000CD1206950B90025A66A20684068C0F381
:1018E00008003080A06A801CA06215E0A56A00266E
:1018F000A068B0F5805F03D0A06828B9206918B946
:1019000020684068287004E02068406800F07F008C
:101910002870A06A401CA062E08D401E80B2E08565
:1019200040BB2068C06820F020002168C8602068A3
:10193000C06820F480702168C8602068406920F089
:10194000010021684861202084F83E00206B0128B6
:101950000AD12068C06820F010002168C860A18DFD
:101960002046FFF7F6FB02E02046FFF7E9FD0020E6
:10197000206370BD0020FCE70220FAE72DE9F84F54
:1019800004462068006920F44050E168084321685B
:1019900008612169A068084361690843E169084357
:1019A00000902068C06849F20C61884300990843A0
:1019B0002168C8602068406920F44070A16908432C
:1019C0002168486176492068884203D075492068BB
:1019D000884203D1FFF794FA814602E0FFF780FACC
:1019E0008146E069B0F5004F6CD102206168A0FB30
:1019F000015003461920A9FB007001462A463846CB
:101A0000FEF7ADFC6421B0FBF1F04FEA001A0220B2
:101A10006168A0FB01510B461920A9FB00712A4601
:101A20003846FEF79CFC834602206168A0FB01500B
:101A300003461920A9FB00712A463846FEF78FFCA1
:101A40006421B0FBF1F000EBC00101EB0010ABEB47
:101A50008000322101EBC0006421B0FBF1F000F006
:101A6000F8000AEB400A02206168A0FB015003461F
:101A70001920A9FB007001462A463846FEF76FFC84
:101A8000834602206168A0FB015003461920A9FB90
:101A900000712A463846FEF762FC6421B0FBF1F083
:101AA00000EBC00101EB0010ABEB8000322101EB39
:101AB000C0006421B0FBF1F000F007005044216841
:101AC00088606AE004206168A0FB01500346192089
:101AD000A9FB007001462A463846FEF740FC8246C4
:101AE00004206168A0FB015003461920A9FB007087
:101AF00001462A463846FEF732FC6421B0FBF1F07D
:101B000000EBC00101EB0010AAEB8000322101EBD9
:101B100000106421B0FBF1F000F0F00A04206168CD
:101B2000A0FB017003461920A9FB00513A46284644
:101B3000FEF715FC6421B0FBF1F00AEB001A04205B
:101B40006168A0FB01510B461920A9FB00712A46D0
:101B50003846FEF704FC834604206168A0FB015070
:101B600003461920A9FB007001462A463846FEF7B5
:101B7000F6FB6421B0FBF1F000EBC00101EB0010BB
:101B8000ABEB8000322101EB00106421B0FBF1F0DF
:101B900000F00F00504421688860BDE8F88F000015
:101BA000001001400014014010B5034699629A8567
:101BB000DA8500201864222083F83E0000BF002050
:101BC00083F83C0000BF1868C06840F480701C684F
:101BD000E0601868406940F001001C6860611868A6
:101BE000C06840F020001C68E060002010BD014685
:101BF00091F83D00212828D18868B0F5805F0BD18D
:101C0000086948B90A6A1088C0F308000B68586070
:101C1000086A801C086205E00B6A581C0862187884
:101C20000B685860C88C401E80B2C88458B90868D8
:101C3000C06820F080000B68D8600868C06840F079
:101C400040000B68D860002070470220FCE70000CD
:101C500070B500240F4D1048FFF788FA00BF03E06D
:101C6000641CAC4200D904E00B48FFF774FA20284A
:101C7000F6D100BF002403E0641CAC4200D906E0AA
:101C8000012206490448FFF739FC0028F4D100BFBF
:101C900070BD0000FFFF01009C1100201E0000200D
:101CA00000BFFEE702480068C0F302207047000052
:101CB0000CED00E010B5002804DB0A07130E054AFE
:101CC000135406E00A07140E034A00F00F031B1F0B
:101CD000D45410BD00E400E018ED00E000BF7047F0
:101CE00070B504460420FFF706FA0A48046025464A
:101CF0004FF47A7045434FF0E020006940F0020055
:101D00004FF0E021086108464561006940F001009C
:101D1000086170BD1400002030B50446002504E0C1
:101D20004FF47A7000F004F86D1CA542F8D330BD72
:101D300070B5034600224FF0E02675690D4E3668F7
:101D400003FB06F44FF0E026B16910E04FF0E02607
:101D5000B06988420BD0884202D20E1A324402E0A7
:101D60002E1A0E4432440146A24200D300E0EDE7B1
:101D700000BF70BD1400002000BF054A126802F0C9
:101D80004002002AF9D0C2B2014B5A6070470000ED
:101D9000001001400EB50848084901220023CDE992
:101DA00000210290802206A1084801F029FE08497E
:101DB000086001F05DFA0EBDAC020020AC0000200E
:101DC00073746172745F7461736B0000D9160008DC
:101DD0000400002000B587B000BF00BF00200190C4
:101DE0003848006840F00800364908600846006836
:101DF00000F00800019000BF00BF00BF00BF00BF9F
:101E0000002001900846006840F010000860084675
:101E1000006800F01000019000BF00BF00BF00BFCD
:101E200000BF002001900846006840F010000860E4
:101E30000846006800F01000019000BF00BF00BF1E
:101E400000BF00BF002001900846006840F001007C
:101E500008600846006800F00100019000BF00BF64
:101E600000BF402002900020039001200490022037
:101E7000059002A91448FEF751FE082002900020A8
:101E80000390012004900220059002A90F48FEF75C
:101E900045FE0420029000200390012004900220BF
:101EA000059002A90948FEF739FE012002900020A2
:101EB000039002200490059002A90548FEF72EFE2B
:101EC00007B000BD30380240000C02400010024054
:101ED0000000024070B50446002514B101202B49D2
:101EE00008702A480078002834D040212848FEF79E
:101EF00025FF78B108212748FEF720FF50B10421C3
:101F00002448FEF71BFF28B101212348FEF716FFE6
:101F100001281FD10A20FFF7FFFE00201B4908708F
:101F200040211B48FEF70AFF00B901250821194886
:101F3000FEF704FF00B9022504211648FEF7FEFE55
:101F400000B9032501211448FEF7F8FE01281BD132
:101F5000042519E040210E48FEF7F0FE012813D1B8
:101F600008210C48FEF7EAFE01280DD1042109489A
:101F7000FEF7E4FE012807D101210748FEF7DEFE47
:101F800010B9012001490870284670BD29000020C1
:101F9000000C0240001002400000024000B587B073
:101FA00000BF00BF002001902048006840F00800FA
:101FB0001E4908600846006800F00800019000BF54
:101FC00000BF00BF00BF00BF0020019008460068AE
:101FD00040F0010008600846006800F00100019030
:101FE00000BF00BF00BFC8140290012003900490FE
:101FF0000220059002A90E48FEF790FD4FF4806084
:10200000029002A90B48FEF789FD00BF0122D10210
:102010000748FEF7A5FE00BF00BF01229102054858
:10202000FEF79EFE00BF07B000BD00003038024042
:10203000000C02400000024010B5FEF7A9FE24206B
:10204000FFF74EFE4FF4E13000F0BEFDFFF7A6FFB4
:10205000FFF7C0FEFFF7BEFAFFF79CFE002010BDA1
:102060002DE9F04105460E46294807680020294918
:10207000096881F85A0027480068001D00F0C0FD7B
:1020800050B92448006890F82C100120884022495B
:102090000968814320480160681CD8B9D6B11F493E
:1020A00048681C49096888601A4982680968CA60DA
:1020B00018490968091D8268516016490968091D97
:1020C0008160164A134909684A6111460968491C2A
:1020D00011601AE07C190F4800684460BC4207D2C6
:1020E0000C480168091D0E48006800F0C5FD0CE0B1
:1020F00008480168091D0B48006800F0BDFD0A484A
:102100000068844201D208480460BDE8F081000004
:10211000400000202C000020440000206C1500200E
:1021200034000020300000205C00002010B5044680
:1021300000F0C8FD31480068401C30490860304854
:10214000006840B92E4804600846006801280DD197
:1021500000F014FA0AE02B48006838B928480068F3
:10216000C06AE16A884201D82548046026480068B0
:10217000401C2549086008460068606494F82C10EB
:102180000120884021490968084320490860E16A24
:1021900001EB81011E4A02EB81014868A060826860
:1021A000E260211D826851608160E16A01EB81017A
:1021B000174A02EB81026261E16A01EB8101144A74
:1021C00052F82110491CE26A02EB8202104B43F8DC
:1021D000221000F0C3FD0B48006868B10848006891
:1021E000C06AE16A884207D24FF08050094908600E
:1021F000BFF34F8FBFF36F8F10BD00003C00002076
:102200002C0000204800002058000020440000203E
:102210009C12002004ED00E008B500F053FD1248C8
:102220000068E8B9114800F017FD114800F014FDEE
:102230000E48104908600E480F49086000200F4BF7
:102240000F4A10210090052001F0DCF906490860D2
:102250000846006820B10BA10348006800F03EFE6C
:1022600000F07CFD08BD00007400002080150020F7
:10227000941500206C00002070000020A81500209C
:10228000FC150020546D72510000000010B516E0DE
:1022900000F018FD0C48C068C468201D00F0B0FCB8
:1022A0000A480068401E0949086009480068401E45
:1022B0000749086000F052FD204600F05FF804482E
:1022C00000680028E4D110BD581500203C00002013
:1022D0003800002070B504460D46206C70B1216CAA
:1022E000E0680144E160D4E90210884201D321682A
:1022F000E1602846226CE168FEF74EF970BD2DE9D9
:10230000F04104460F4615464FF00008A66B206CBE
:1023100048B9206800282CD1A06801F0E3FC804671
:102320000020A06025E07DB93946226C6068FEF788
:1023300033F9216C606808446060D4E90101884287
:1023400017D32068606014E03946226CE068FEF71D
:1023500023F9216CE068411AE1602168E068884255
:1023600003D2216CA068411AE160022D01D106B1AF
:10237000761E701CA0634046BDE8F08110B504468F
:1023800094F8590030B9206B00F028FD204600F089
:1023900025FD15E094F85900012803D1204600F0EE
:1023A0001DFD0DE094F85900022801D1012000E044
:1023B000002028B940F69C7202A10BA0FEF746F857
:1023C00010BD00002E2E5C2E2E5C4D6964646C6581
:1023D00077617265735C4672656552544F535C74E5
:1023E00061736B732E6300004572726F723A202521
:1023F000732C2025640D0A000146084A12681268F1
:102400000AB9012200E000220A600A6822B9034AE0
:102410001268D268106800E0002070476C0000204D
:1024200000BFFFF733FF064800680128F9D94FF0D5
:10243000805004490860BFF34F8FBFF36F8FF0E700
:102440009C12002004ED00E02DE9F04106460D4607
:1024500017469846069C0DB9246000E02760E663A5
:1024600025640121204601F027F984F850800020DE
:10247000A064BDE8F08100002DE9F05F82460F46C0
:1024800090469B460A9E0C9C4FEA8801A522206B31
:10249000FEF7C7F8A8F10100216B01EB800929F0D4
:1024A000070909F0070008B9012000E0002028B959
:1024B0004FF4587224A12DA0FDF7C8FF87B1002565
:1024C00007E0795D04F134004155785D00B902E020
:1024D0006D1C102DF5D300BF00214320015502E0F3
:1024E000002084F83400202E01D2012000E00020DA
:1024F00028B940F2973214A11CA0FDF7A7FF202EA7
:1025000000D31F26E662E66400202065201D00F04F
:10251000B0FB04F1180000F0ACFB2461C6F1200010
:10252000A06164620020606584F8580084F85A0055
:102530005A465146484600F031FB20600B9808B1DE
:102540000B980460BDE8F09F2E2E5C2E2E5C4D692A
:1025500064646C6577617265735C4672656552543C
:102560004F535C7461736B732E6300004572726F1E
:10257000723A2025732C2025640D0A0010B5002422
:1025800007E004EB84010F4A02EB810000F064FBDA
:10259000641C202CF5D30C4800F05EFB0B4800F0C7
:1025A0005BFB0B4800F058FB0A4800F055FB0A485B
:1025B00000F052FB044809490860044808490860D3
:1025C00010BD00009C1200201C15002030150020BA
:1025D00044150020581500206C1500203000002004
:1025E0003400002010B50146164800E0006803687A
:1025F0008B42FBD30246436813448B4204D14368A9
:102600004C682344436001460A464B6813440468FF
:10261000A34211D10C4C03682468A34208D04B6834
:102620000468646823444B6003681B680B6005E022
:10263000054B1B680B6001E003680B60884200D00B
:10264000016010BD80000020880000202DE9F041CD
:1026500004460D4616461F464FF00008656024618B
:10266000B5420CD8F01BA169884202D34FF0010893
:1026700011E0211D0948006800F0FEFA0BE0BE429F
:1026800004D2BD4202D34FF0010804E0211D0448EA
:10269000006800F0F1FA4046BDE8F08170000020CB
:1026A0006C00002070B5054600F00CFBA86B08B963
:1026B000012400E0002400F051FB204670BD000022
:1026C000F1B50098846C00262CB940F6D53220A1D3
:1026D00028A0FDF7BBFEA06BE16B884201D2012070
:1026E00000E0002028B940F6D63219A121A0FDF75C
:1026F000ADFEA06BE16B884227D294F945500022D1
:1027000069462046FFF7FBFD0646681C60B9606A13
:1027100008B9012000E00020B0B904F1240001F064
:1027200069FB88B101260FE07F2D01D0012000E078
:10273000002028B940F6F63205A10EA0FDF786FE6E
:10274000681C40B284F8450000BF3046F8BD000068
:102750002E2E5C2E2E5C4D6964646C65776172650B
:10276000735C4672656552544F535C71756575654F
:102770002E6300004572726F723A2025732C20255B
:10278000640D0A0070B505460E460E480068C06824
:10279000C468201D00F034FA94F8280000F004000A
:1027A00028B132462946204600F0FEF805E094F8AC
:1027B000280000F0FE0084F828002046216A88479F
:1027C00070BD00006C00002070B586B08AE00298F1
:1027D00000280CDA03AE2EB940F2063247A150A011
:1027E000FDF734FED6E90020B168904700BF02989B
:1027F000002877DB049C606908B9012000E0002014
:1028000010B9201D00F0FCF901A800F0F9F8054608
:1028100002980A2864D2DFE800F06305072E3653D9
:1028200006082F3700BF00BF00BF94F8280040F013
:10283000010084F828000398A269811803462A46FB
:102840002046FFF703FFA8B194F8280000F0040029
:1028500038B10398A26981182A46204600F0A4F8EE
:1028600005E094F8280000F0FE0084F828002046D7
:10287000216A884735E000BF94F8280000F0FE0088
:1028800084F828002DE000BF94F8280040F00100F3
:1028900084F828000398A061A06908B1012000E035
:1028A000002028B940F2593214A11DA0FDF7CEFD39
:1028B000A06941192B462A462046FFF7C7FE10E0C3
:1028C00094F8280000F0020018B9204600F086FABB
:1028D00005E094F8280000F0FE0084F8280000E0ED
:1028E00000BF00BF002202A91148006800F062FF8B
:1028F00000287FF46CAF06B070BD00002E2E5C2E59
:102900002E5C4D6964646C6577617265735C4672B8
:10291000656552544F535C74696D6572732E630024
:102920004572726F723A2025732C2025640D0A00BF
:1029300074000020F8B505460C4600F00FFD68460F
:1029400000F05EF80646009820BB44B9B54206D8B0
:1029500001F0F6FA31462846FFF714FF1CE03CB1BF
:102960000E480068006808B9012000E00020044615
:10297000A91B22460A48006800F0F6FA01F0E0FAC6
:1029800050B94FF0805007490860BFF34F8FBFF335
:102990006F8F01E001F0D4FAF8BD00007000002054
:1029A0007400002004ED00E070B504460D461646A4
:1029B00004E0A06905442046216A8847A0694119BE
:1029C0002B4632462046FFF741FE0028F1D170BD6C
:1029D00009480068006808B9012000E0002020B123
:1029E0004FF0FF300549086005E003480068C06803
:1029F0000068024908607047300000205C00002039
:102A000070B5044601F074F8054607480068854231
:102A100004D200F00BF80120206001E000202060CB
:102A200001480560284670BD7C00002070B508E0B4
:102A30000D480068C06804684FF0FF312046FFF77A
:102A4000A1FE09480068006808B9012000E00020E4
:102A50000028EDD004480568044800680249086071
:102A60000248056070BD00006C000020700000206E
:102A70000B480068401C08B9012000E0002020B984
:102A8000E92208A116A0FDF7E1FC00BF502080F369
:102A90001188BFF34F8FBFF36F8F00BF00BFFEE7FA
:102AA000A00000202E2E5C2E2E5C4D6964646C65A7
:102AB00077617265735C4672656552544F535C7002
:102AC0006F727461626C655C525644535C41524D46
:102AD0005F434D34465C706F72742E6300000000DB
:102AE0004572726F723A2025732C2025640D0A00FE
:102AF00008B500BF6846FFF77FFC044620460099F2
:102B0000FFF718FFFFF760FEF4E770B5044600F02A
:102B1000D9F894F9455019E0A06C30B12046FFF780
:102B2000CFFD88B100F026FB0EE0606A08B90120F5
:102B300000E0002038B904F1240001F05BF918B17D
:102B400000F018FB00E003E0681E45B2002DE3DC56
:102B500000BFFF2084F8450000F000F900F0B2F853
:102B600094F9445010E0206908B9012000E00020E9
:102B700048B904F1100001F03DF908B100F0FAFA8B
:102B8000681E45B200E001E0002DECDC00BFFF2034
:102B900084F8440000F0E2F870BD0000001F4FF020
:102BA00080730360001F21F001030360001F054BC9
:102BB000036014380260001F6FF0020303602038C6
:102BC00070470000712A000810B5044609480A49F8
:102BD00008600846446000218160C1600161816134
:102BE0000C214161FEF7EAFB012204490248FEF78D
:102BF00085FC10BD001001409C1100201E0000202B
:102C000001460A69D1E901309860D1E901035860B1
:102C10005068884201D188685060002008611068BF
:102C2000401E106010687047034B0360034B0B603D
:102C300080231360704700001C0A0020780A0020DF
:102C4000034B0360034B0B604FF4807313607047BA
:102C5000780C0020D40C002000F1080141604FF0F6
:102C6000FF31816000F10801C16001610021016054
:102C7000704700210161704710B502460B685C1C6B
:102C80000CB9106907E002F1080000E040684468F0
:102C900024689C42FAD944684C604C68A160886002
:102CA00041600A611468641C146010BD42684A6087
:102CB00093688B60936859609160086103685B1C3E
:102CC0000360704710B500BF502080F31188BFF338
:102CD0004F8FBFF36F8F00BF0B480068401C0A493D
:102CE00008600846006801280DD108480068C0B295
:102CF00008B9012000E0002028B94FF4DB7204A1DC
:102D000012A0FDF7A3FB10BDA000002004ED00E021
:102D10002E2E5C2E2E5C4D6964646C657761726545
:102D2000735C4672656552544F535C706F72746188
:102D3000626C655C525644535C41524D5F434D3466
:102D4000465C706F72742E63000000004572726FF3
:102D5000723A2025732C2025640D0A0010B50B480B
:102D6000006828B940F2BD1209A118A0FDF76EFB5A
:102D700006480068401E054908600846006820B9FA
:102D8000002080F3118800BF00BF10BDA00000200C
:102D90002E2E5C2E2E5C4D6964646C6577617265C5
:102DA000735C4672656552544F535C706F72746108
:102DB000626C655C525644535C41524D5F434D34E6
:102DC000465C706F72742E63000000004572726F73
:102DD000723A2025732C2025640D0A0070B5064632
:102DE0003546002E3AD0083D2C461D4960680968DA
:102DF000084008B1012000E0002028B94FF4927289
:102E000018A126A0FDF722FB206808B9012000E0E8
:102E1000002028B940F2251212A120A0FDF716FBD0
:102E20000F49606809680840C0B12068B0B90C4912
:102E3000606809688843606000F090FA1B49606828
:102E400009680844194908602046FFF7CBFB184879
:102E50000068401C1649086001F072F870BD00005F
:102E60009C0000202E2E5C2E2E5C4D6964646C65E7
:102E700077617265735C4672656552544F535C703E
:102E80006F727461626C655C4D656D4D616E675CFF
:102E9000686561705F342E63000000004572726FD8
:102EA000723A2025732C2025640D0A008C00002026
:102EB0009800002000204FF0E0210861886106485A
:102EC00000684FF47A71B0FBF1F0401E4FF0E02142
:102ED0004861072008617047000000202DE9F0419B
:102EE00006460F462EB940F6C82211A119A0FDF7DB
:102EF000ADFA0025BFB1002412E01A4800EBC4006F
:102F00004068B04203D1174800EBC4050AE035B968
:102F1000144850F8340010B9124800EBC405641C82
:102F2000082CEAD300BF0DB12F606E60BDE8F081C0
:102F30002E2E5C2E2E5C4D6964646C657761726523
:102F4000735C4672656552544F535C717565756567
:102F50002E6300004572726F723A2025732C202573
:102F6000640D0A005C1200202DE9F04105460E4672
:102F700017462C46FFF7A6FE94F94400401C10B9F2
:102F8000002084F8440094F94500401C10B900204A
:102F900084F84500FFF7E2FEA06B28B93A463146B7
:102FA00004F1240000F01EF92046FFF7AEFDBDE855
:102FB000F081000070B504460025ACB10F480068F0
:102FC00008B9012000E0002028B940F249520CA1C4
:102FD00014A0FDF73BFA00F0C1F900212046FFF7ED
:102FE0003FF800F0ADFF05463DB94FF08050114964
:102FF0000860BFF34F8FBFF36F8F70BD6800002074
:103000002E2E5C2E2E5C4D6964646C657761726552
:10301000735C4672656552544F535C7461736B7395
:103020002E6300004572726F723A2025732C2025A2
:10303000640D0A0004ED00E070B50546FFF742FE9E
:1030400015B92F48006800E028460446201DFFF708
:10305000D7FD78B9E06A00EB80002A4951F82000DA
:1030600040B994F82C100120884027490968814311
:1030700025480160A06A18B104F11800FFF7C0FDEF
:1030800022480068401C214908601D4800688442AD
:1030900009D1211D1E48FFF709FE1E480068401C8B
:1030A0001C49086006E01C480068401E1A49086078
:1030B000FFF78EFCFFF752FE11480068844202D0F1
:1030C0002046FFF75BF915480068C0B10C4800685E
:1030D000844214D11248006808B9012000E00020A1
:1030E00028B940F2DC420FA117A0FDF7AFF94FF06D
:1030F000805019490860BFF34F8FBFF36F8F70BDC9
:103100002C0000209C1200204400002058000020C9
:1031100058150020380000203C0000204800002006
:10312000680000202E2E5C2E2E5C4D6964646C6558
:1031300077617265735C4672656552544F535C7477
:1031400061736B732E6300004572726F723A2025B3
:10315000732C2025640D0A0004ED00E00349096882
:103160000160034909684160704700005400002075
:1031700040000020012001490860704750000020F5
:1031800070B504460D462CB940F61C4207A110A0AC
:10319000FDF75CF91248016818312046FFF76CFD15
:1031A00001212846FEF75CFF70BD00002E2E5C2E2C
:1031B0002E5C4D6964646C6577617265735C467200
:1031C000656552544F535C7461736B732E630000DA
:1031D0004572726F723A2025732C2025640D0A0007
:1031E0002C00002070B504460E4615462CB940F65A
:1031F000524211A119A0FDF729F960681B4909681D
:10320000C8611A49826809680A6218490968183150
:10321000826851601549096818318160134909684D
:103220008C622168491C21600DB14FF0FF362946A0
:103230003046FEF715FF70BD2E2E5C2E2E5C4D69BC
:1032400064646C6577617265735C4672656552543F
:103250004F535C7461736B732E6300004572726F21
:10326000723A2025732C2025640D0A002C000020C2
:1032700010B586B000200590049003AA04A905A803
:10328000FFF7D2FC0022DDE904101346CDE900214E
:1032900002901DA11E48039A00F0B2FB1D49086070
:1032A0000846006808B1012400E00024012C02D186
:1032B00000F016FF0446012C15D100BF502080F30A
:1032C0001188BFF34F8FBFF36F8F00BF4FF0FF30F8
:1032D0001149086001201149086000201049086068
:1032E00000F0A0F80BE0601C08B1012000E0002015
:1032F00028B94FF404620BA113A0FDF7A7F81648F4
:10330000006806B010BD000049444C4500000000B4
:1033100021240008600000205C00002048000020FC
:10332000400000202E2E5C2E2E5C4D6964646C657E
:1033300077617265735C4672656552544F535C7475
:1033400061736B732E6300004572726F723A2025B1
:10335000732C2025640D0A006400002002480068D8
:10336000401C0149086070476800002010B51B48E8
:10337000006818B101201A4908602DE000201849A2
:10338000086018480068B0FA80F0C0F11F0404EB30
:103390008400154951F8200008B1012000E0002008
:1033A00028B940F6024211A119A0FDF74FF804EB2D
:1033B00084010D4A02EB810041684968416000F1D7
:1033C000080142688A4202D1416849684160416807
:1033D000C968134A116000BF10BD000068000020DA
:1033E00050000020440000209C1200202E2E5C2E55
:1033F0002E5C4D6964646C6577617265735C4672BE
:10340000656552544F535C7461736B732E63000097
:103410004572726F723A2025732C2025640D0A00C4
:103420002C0000201CB5504800685049884201D04B
:10343000012000E0002028B940F243124CA15BA01B
:10344000FDF704F8484800684849491E884201D001
:10345000012000E0002028B94FF4A27244A153A03B
:10346000FCF7F4FF554C204600780190FF202146E0
:1034700008700846007800909DF8000000F0F00009
:103480009DF80010884201D1012000E0002028B9F9
:1034900040F25D1236A145A0FCF7D8FF9DF8000070
:1034A00000F050004649087007204649086009E0CE
:1034B00044480068401E434908609DF800004006EB
:1034C000000E00909DF8000000F080008028EFD0F2
:1034D0003C480068C0F10700042801D1012000E049
:1034E000002028B940F2711221A130A0FCF7AEFFF4
:1034F00034480068C0F10700042801D1012000E031
:10350000002028B94FF4BD7219A128A0FCF79EFF36
:103510002C48006800022B4908600846008800F427
:10352000E06008602549019808700F482030006865
:1035300040F470000C49203108600846006840F0F3
:1035400070400860FFF7B6FC00201F490860FCF7D8
:10355000A9FE1E48006840F040401C490860FCF786
:103560008DFE00201CBD000000ED00E071C20F4187
:103570002E2E5C2E2E5C4D6964646C6577617265DD
:10358000735C4672656552544F535C706F72746120
:10359000626C655C525644535C41524D5F434D34FE
:1035A000465C706F72742E63000000004572726F8B
:1035B000723A2025732C2025640D0A0000E400E0F7
:1035C000A4000020A8000020A000002034EF00E0AC
:1035D00010B500BF502080F31188BFF34F8FBFF3A9
:1035E0006F8F00BF00F08AFA18B14FF08050044985
:1035F000086000BF002080F3118800BF10BD0000EC
:1036000004ED00E02DE9F84380460E4617461C46BF
:10361000DDF8209000252CB940F2591219A122A002
:10362000FCF714FFB8F1000F21D0002C1FD007B118
:10363000EEB107B9DEB9542000900098542801D1AA
:10364000012000E0002028B940F26B120DA116A065
:10365000FCF7FCFE00BF2546012085F846004B46DE
:103660003A46314640460095FEF7EEFE06E02DB99B
:103670004FF4C17203A10CA0FCF7E8FE2846BDE898
:10368000F88300002E2E5C2E2E5C4D6964646C6500
:1036900077617265735C4672656552544F535C7115
:1036A000756575652E6300004572726F723A20254C
:1036B000732C2025640D0A002DE9F04105460E46C5
:1036C00001272C462CB94FF488722CA134A0FCF7AA
:1036D000BDFE002C42D0E06B00283FD04FF0FF3100
:1036E000E06BB1FBF0F0216C884237D3FFF7EAFAC8
:1036F000D4E90F12206801FB0200A0600020A06343
:1037000020686060E06B401E226C216800FB0211A3
:10371000E160FF2084F8440084F845009EB92069E8
:1037200008B9012000E00020A8B904F1100000F061
:1037300061FB80B14FF080501D490860BFF34F8F8F
:10374000BFF36F8F07E004F11000FFF785FA04F173
:103750002400FFF781FAFFF701FB00E000270FB11B
:10376000012000E0002028B940F2451203A10CA07E
:10377000FCF76CFE3846BDE8F08100002E2E5C2E72
:103780002E5C4D6964646C6577617265735C46722A
:10379000656552544F535C71756575652E63000005
:1037A0004572726F723A2025732C2025640D0A0031
:1037B00004ED00E02DE9F74183B005460E464FF0D9
:1037C00000082C462CB940F251524CA154A0FCF7F1
:1037D0003DFE0EB9206C08B9012000E0002028B998
:1037E00040F2555245A14EA0FCF730FE00F070F9B2
:1037F00008B9059808B9012000E0002028B940F276
:103800005A523EA146A0FCF721FE00BFFFF75AFA2C
:10381000A76BF7B131462046FEF75CFD781EA0632A
:10382000206908B9012000E0002060B904F110000F
:1038300000F0E0FA38B14FF080503D490860BFF326
:103840004F8FBFF36F8FFFF789FA012006B0BDE8F5
:10385000F081059818B9FFF781FA0020F6E7B8F172
:10386000000F04D101A8FFF779FC4FF00108FFF722
:1038700075FAFFF773FDFFF725FA94F94400401C31
:1038800010B9002084F8440094F94500401C10B998
:10389000002084F84500FFF761FA05A901A800F0AF
:1038A00049F8F0B92046FEF7FDFEA0B104F124006E
:1038B0000599FFF765FC2046FFF727F900F040FB6C
:1038C0000028A3D14FF0805019490860BFF34F8FF3
:1038D000BFF36F8F9AE72046FFF717F900F030FB30
:1038E00094E72046FFF711F900F02AFB2046FEF787
:1038F000D9FE00288AD00020A8E700002E2E5C2EDA
:103900002E5C4D6964646C6577617265735C4672A8
:10391000656552544F535C71756575652E63000083
:103920004572726F723A2025732C2025640D0A00AF
:1039300004ED00E070B506460C462EB940F6FD4297
:103940001FA128A0FCF782FD2CB940F6FE421CA165
:1039500024A0FCF77BFDFFF7B5F9264802687068E4
:10396000131A2548006890F85A0030B10020224907
:10397000096881F85A0001251EE02068401C08B93A
:10398000002519E01D4930680968884206D0706832
:10399000904203D80125002020600DE02068984265
:1039A00007D92068C01A20603046FFF7D7FB0025F2
:1039B00002E0002020600125FFF7D0F9284670BD05
:1039C0002E2E5C2E2E5C4D6964646C657761726589
:1039D000735C4672656552544F535C7461736B73CC
:1039E0002E6300004572726F723A2025732C2025D9
:1039F000640D0A00400000202C000020540000202C
:103A00002DE9F04F85B00746884691469A46DDE994
:103A10000EB6109C0EB1012000E0002028B940F243
:103A20004A221EA126A0FCF711FD0CB1012000E0E6
:103A3000002028B940F24B2218A121A0FCF706FD76
:103A40005C20039003985C2801D1012000E0002055
:103A500028B940F2532211A119A0FCF7F7FC00BFCE
:103A6000ACB1A6B125462E63022085F8590000208E
:103A700004A953464A46CDE900B1CDE9025041467A
:103A80003846FEF7F9FC2846FEF750FB01E000201F
:103A90000490049805B0BDE8F08F00002E2E5C2E37
:103AA0002E5C4D6964646C6577617265735C467207
:103AB000656552544F535C7461736B732E630000E1
:103AC0004572726F723A2025732C2025640D0A000E
:103AD0000549096809B9012005E00449096809B9DF
:103AE000022000E00020704748000020680000200D
:103AF0000149086870470000400000202DE9F041AE
:103B00004FF000085F48006800287DD15E480068DB
:103B1000451C5D480560002D1DD15C4800680068AB
:103B200008B9012000E0002028B940F6C72258A1BA
:103B300060A0FCF78BFC5548076862480068534951
:103B400008606048076060480068401C5E49086083
:103B5000FEF73EFF00BF5D480068854277D300BF97
:103B60004A480068006808B9012000E0002020B140
:103B70004FF0FF305549086068E044480068C0686D
:103B8000C4686668B54202D2504806605EE060696B
:103B9000D4E902128A60D4E902214A60211D4268F8
:103BA0008A4201D1E1684160002262610168491ED8
:103BB0000160A06A98B1A06AD4E907128A60D4E9CA
:103BC00007214A6004F1180142688A4201D1216A42
:103BD00041600022A2620168491E016000BF94F8A2
:103BE0002C10012088403A49096808433849086088
:103BF000E16A01EB8101374A02EB81014868A0606C
:103C00008268E260211D00E033E0826851608160DB
:103C1000E16A01EB81012F4A02EB81026261E16AF4
:103C200001EB81012B4A52F82110491CE26A02EB98
:103C30008202284B43F822102749E06A0968C96AC2
:103C400088428DD34FF001088AE700E000BF224888
:103C50000068C06A00EB80001E4951F8200001286E
:103C600001D94FF001081D48006808B14FF0010864
:103C700004E01B480068401C194908604046BDE844
:103C8000F08100006800002040000020300000208B
:103C90002E2E5C2E2E5C4D6964646C6577617265B6
:103CA000735C4672656552544F535C7461736B73F9
:103CB0002E6300004572726F723A2025732C202506
:103CC000640D0A0034000020540000205C00002035
:103CD000440000209C1200202C00002050000020F6
:103CE0004C00002070B505462C460026002D5ED005
:103CF00030480068844201D1012000E0002028B94A
:103D000041F24F022CA135A0FCF7A0FB206D28B991
:103D100041F2500228A131A0FCF798FB206D401E13
:103D20002065E16CE06A884241D0206D00283ED1D8
:103D3000201DFEF765FF40B994F82C100120884043
:103D40002A490968814329480160E06CE062E06A21
:103D5000C0F12000A06194F82C1001208840234974
:103D60000968084321490860E16A01EB8101204AA2
:103D700002EB81014868A0608268E260211D8268D0
:103D800051608160E16A01EB8101194A02EB810215
:103D90006261E16A01EB8101154A52F82110491C68
:103DA000E26A02EB8202124B43F8221001263046EF
:103DB00070BD00002C0000202E2E5C2E2E5C4D6964
:103DC00064646C6577617265735C467265655254B4
:103DD0004F535C7461736B732E6300004572726F96
:103DE000723A2025732C2025640D0A00440000201F
:103DF0009C12002070B50646F068C4682CB940F6E5
:103E000082423CA144A0FCF721FBA06AD4E907123E
:103E10008A60D4E907214A6004F1180142688A42A5
:103E200001D1216A41600022A2620168491E01603D
:103E30003D48006800283DD16069D4E902128A60DB
:103E4000D4E902214A60211D42688A4201D1E16819
:103E50004160002262610168491E016094F82C10E3
:103E60000120884031490968084330490860E16A07
:103E700001EB81012E4A02EB81014868A060826853
:103E8000E260211D826851608160E16A01EB81017D
:103E9000274A02EB81026261E16A01EB8101244A57
:103EA00052F82110491CE26A02EB8202204B43F8CF
:103EB000221010E01F494868E0618268226204F124
:103EC00018018268516081601A4AA262114609682D
:103ED000491C116000BF1849E06A0968C96A884234
:103EE00004D9012501201549086000E00025284675
:103EF00070BD00002E2E5C2E2E5C4D6964646C65D6
:103F000077617265735C4672656552544F535C7499
:103F100061736B732E6300004572726F723A2025D5
:103F2000732C2025640D0A00680000204400002046
:103F30009C120020441500202C000020500000207E
:103F400070B5002400265048006828B940F6B30236
:103F50004EA157A0FCF77AFAFEF7B4FE4A48006873
:103F6000401E494908600846006800287ED1544830
:103F7000006800287AD05BE05248C068C468A06A34
:103F8000D4E907128A60D4E907214A6004F11801D4
:103F900042688A4201D1216A41600022A26201681E
:103FA000491E01606069D4E902128A60D4E90221E5
:103FB0004A60211D42688A4201D1E16841600022C5
:103FC00062610168491E016094F82C10012088404C
:103FD0003D49096808433C490860E16A01EB8101F9
:103FE0003A4A02EB81014868A0608268E260211DC4
:103FF000826851608160E16A01EB8101334A02EB22
:1040000081026261E16A01EB8101304A52F82110BC
:10401000491CE26A02EB82022C4B43F822102C4925
:10402000E06A0968C96A884202D301202949086008
:104030002448006808B9012000E0002000289BD037
:104040000CB1FEF7C5FC2448056865B100BFFFF759
:1040500055FD10B101201F4908606D1E002DF6D1DD
:1040600000201D4908601B48006800E008E038B1E6
:104070000126300719490860BFF34F8FBFF36F8FD8
:10408000FEF76CFE304670BD680000202E2E5C2EC0
:104090002E5C4D6964646C6577617265735C467211
:1040A000656552544F535C7461736B732E630000EB
:1040B0004572726F723A2025732C2025640D0A0018
:1040C0003C00002044150020440000209C120020E9
:1040D0002C000020500000204C00002004ED00E0E7
:1040E00010B586B00024FEF797F814480068D0B1E8
:1040F00000200590049003AA04A905A8FEF7A0FDDE
:104100001F22DDE904100023CDE9002102900CA15B
:104110000D48039AFFF774FC0C49086008460068D4
:1041200000B1012400BF2CB940F2191208A111A05E
:10413000FCF78CF9204606B010BD0000740000208A
:10414000546D722053766300F12A00087800002035
:104150002E2E5C2E2E5C4D6964646C6577617265F1
:10416000735C4672656552544F535C74696D657239
:10417000732E63004572726F723A2025732C2025CE
:10418000640D0A004FF04070E1EE100A7047000025
:1041900000000000000001020304060708090000F7
:1041A0000000010203040000C841000800000020D4
:1041B000AC000000E801000874420008AC000020D8
:1041C000041C0000040200080024F40000000000A9
:1041D00000000000000000000000000000000000DF
:1041E00000000000000000000000000010000000BF
:1041F00001010000000000000000000000000000BD
:1042000000000000000000000000000000000000AE
:10421000000000000000000000000000000000009E
:104220000000000000000000000000001F0000006F
:10423000000000000000000000000000000000007E
:10424000000000000000000000000000000000006E
:10425000000000000000000000000000000000005E
:104260000000000000000000AAAAAAAA00000000A6
:04427000000000004A
:04000005080001AD41
:00000001FF
