:020000040800F2
:1000000020B1012089020008831C00087B1C000825
:100010007F1C0008150900080D22000800000000E0
:10002000000000000000000000000000871C000825
:100030001909000800000000851C0008891C000840
:10004000C3020008C3020008C3020008C30200087C
:10005000C3020008C3020008C3020008C30200086C
:10006000C3020008C3020008C3020008C30200085C
:10007000C3020008C3020008C3020008C30200084C
:10008000C3020008C3020008C3020008C30200083C
:10009000C3020008C3020008C3020008C30200082C
:1000A000C3020008C3020008C3020008C30200081C
:1000B000C3020008C3020008A51C0008C302000810
:1000C000C3020008C3020008C3020008C3020008FC
:1000D000C3020008BD210008C3020008C3020008D3
:1000E000C3020008C3020008C3020008C3020008DC
:1000F000C3020008C3020008C3020008C3020008CC
:10010000C3020008C3020008C3020008C3020008BB
:10011000C3020008C3020008C3020008C3020008AB
:10012000C3020008C3020008C3020008C30200089B
:10013000C3020008C3020008C3020008C30200088B
:10014000C3020008C3020008C3020008C30200087B
:10015000C3020008C3020008C3020008C30200086B
:10016000C3020008C3020008C3020008C30200085B
:10017000C3020008C3020008C30200080000000018
:10018000C3020008C302000800F002F800F06DF896
:100190000AA090E8000C82448344AAF10107DA45E2
:1001A00001D100F062F8AFF2090EBAE80F0013F0C7
:1001B000010F18BFFB1A43F001031847C4A0000049
:1001C000E4A000000A444FF0000C10F8013B13F0CB
:1001D000070408BF10F8014B1D1108BF10F8015BA0
:1001E000641E05D010F8016B641E01F8016BF9D193
:1001F00013F0080F1EBF10F8014BAD1C0C1B09D1EA
:100200006D1E58BF01F801CBFAD505E014F8016B5B
:1002100001F8016B6D1EF9D59142D6D370470000ED
:100220000023002400250026103A28BF78C1FBD8FF
:10023000520728BF30C148BF0B607047642900F0E7
:100240003D81752900F03A81782900F07381632996
:1002500000F00B83732900F01083002070471FB556
:1002600006F076FF1FBD10B510BD00F021FB114652
:10027000FFF7F5FF05F0F0F800F03FFB03B4FFF7E0
:10028000F2FF03BC01F0E7FFDFF84400016841F42E
:1002900070010160BFF34F8FDFF83800016821F073
:1002A00040410160BFF36F8F0B4880470B48004708
:1002B000FEE7FEE7FEE7FEE7FEE7FEE7FEE7FEE716
:1002C000FEE7FEE706480749054A074B704700006E
:1002D00088ED00E034EF00E0911C0008890100087F
:1002E00020AD012020B1012020AD0120704753EA4C
:1002F000020C00F069802DE9F04B4FF00006002B56
:100300001FBFB3FA83F503FA05F424FA05F65E403D
:1003100012BF1643B2FA82F502FA05F4C5F12005C0
:100320001EBF22FA05FC44EA0C04203556EA044CB0
:100330004FEA144418BF641C4FF000084FF0000946
:10034000904271EB030C39D3002919BFB1FA81F740
:1003500001FA07F6B0FA80F700FA07F6C7F12007AE
:100360001EBF20FA07FC46EA0C062037B6FBF4FC59
:10037000A7EB0507103F07F01F0BCBF120060CFA87
:100380000BFB2CFA06F644BFB3460026202FA4BF71
:100390005E464FF0000B5BEA060C08BF4FF0010B06
:1003A00019EB0B09ABFB027C48EB0608C01B06FBF4
:1003B00002CC0BFB03CC71EB0C01C1E70B460246F0
:1003C00041464846BDE8F08B13B54FF000004FF0B2
:1003D0000001AFF30080BDE81C4070470FB4044932
:1003E00010B503AA029800F04DFA10BC5DF814FB9A
:1003F000140000200FB41CB5074B06AA7B446946C5
:100400000090059800F00FFA0020694600F01EFAEF
:100410001CBC5DF814FB00004D04000070B50446E0
:1004200085690068C10601D5302600E02026C00796
:1004300007D070BDD4E9012130469047206A401CA6
:1004400020626D1EF6D570BD70B5044685690078D2
:10045000C00707D170BDD4E9012120209047206A50
:10046000401C20626D1EF6D570BD70B50C46054669
:10047000012A05D02878800600D5EA69002302E029
:10048000012305E05B1C934202D2E05C0028F9D115
:10049000A869E618C01AA861286A18442862284684
:1004A000FFF7BCFF04E0D5E9012114F8010B9047E8
:1004B000B442F8D32846FFF7C7FF70BD2DE9F041DD
:1004C0000646002410687529314616A510D0AFF3F2
:1004D0000080002802DA404213A507E031688A074D
:1004E00001D512A502E0490704D511A5012401E0B8
:1004F000AFF3008000210A2206F1240709E0B0FBD7
:10050000F2FCB0FBF2F302FB1C00303078541846CA
:10051000491C0028F3D123462A463046BDE8F04165
:1005200000F023B9000000002D0000002B000000A7
:100530002000000070B504460D4621461068AFF358
:1005400000802188090502D50F4A7A4402E00E4A4C
:100550007A440E32002104F1240305E000F00F0676
:100560000009965D5E54491C0028F7D120780023CD
:10057000000704D5702D02D009B1022311322046A4
:10058000BDE8704000F0F1B8CA9B00002DE9F05FB3
:10059000894604464FF0000ADFF874B1FB44C0F806
:1005A00020A02046E1688847002874D0252806D07E
:1005B000D4E901219047206A401C2062F1E700261F
:1005C0005F462046E16888472028054607DB312D35
:1005D00005D2781910F8200C08B10643F1E7B007EE
:1005E00001D526F00406C4F81CA00027C4F818A002
:1005F0002A2D09D0284601F027FE38B304EB8708DE
:10060000303DC8F8185019E059F8041B204604EB97
:1006100087029161E1688847012F054618D1E0699A
:10062000002820DA26F020061DE0D8F8180000EB9C
:10063000800005EB40003038C8F818002046E1681B
:100640008847054601F000FE0028EED1012F0AD0B0
:100650002E2D08D12046E16888477F1C0546022FD1
:1006600046F02006C4DBA069002803DA404246F0C9
:100670000106A061F00701D026F010066C2D0BD00A
:10068000682D09D04C2D39D06A2D35D0742D35D038
:100690007A2D33D016E038E0E1682F4620468847AF
:1006A000B842054609D16C2F26D04FF48060E1682E
:1006B000064320468847054604E06C2F1AD04FF4C5
:1006C000807006430DB3A5F14100192802D82035EA
:1006D00046F400664A462946204626604E46FFF705
:1006E000ADFD80B101280BD0F61D26F0070000F10A
:1006F000080956E74020E4E78020D8E70020D6E745
:1007000006F104094DE7284652E7206ABDE8F09F4C
:10071000A09B00004FF0000200B513469446964699
:10072000203922BFA0E80C50A0E80C50B1F1200104
:10073000BFF4F7AF090728BFA0E80C5048BF0CC0B2
:100740005DF804EB890028BF40F8042B08BF704710
:1007500048BF20F8022B11F0804F18BF00F8012B82
:10076000704770477047704770472DE9F0470D4656
:1007700099469246044600F124080168880604D58B
:10078000E06921F01001216000E00120A84201DDB4
:10079000471B00E00027A1697A1902EB0900081A3B
:1007A000A0612078C00602D42046FFF737FE00265D
:1007B00008E0D4E901211AF806009047206A401C9D
:1007C000761C20624E45F4DB2078C0060AD5204610
:1007D000FFF724FE06E0D4E9012130209047206A8B
:1007E000401C2062381EA7F10107F4DC07E0D4E9C1
:1007F000012118F805009047206A401C2062281E3D
:10080000A5F10105F3DC2046FFF71EFE2078000667
:1008100002D50220BDE8F0870120FBE701694A1CF0
:1008200002610878704700B58FB0CDE90131002131
:10083000059105497944CDE9031011466846FFF753
:10084000A5FE0FB000BD0000E5FFFFFF0A6802F83B
:10085000010B0A60704710B5436913B1AFF3008014
:1008600001E0FFF702FE012010BD127800F1240123
:100870000A7000224A700122EDE711684FF0FF3242
:10088000E9E70000074B70B50D467B44FFF7CBFF4F
:100890000446284600F008F810B14FF0FF3070BD54
:1008A000204670BD631A0000007B00F08000704796
:1008B000754600F02BF8AE4605006946534620F019
:1008C0000700854618B020B5FFF7FCFCBDE82040C6
:1008D0004FF000064FF000074FF000084FF0000BFC
:1008E00021F00701AC46ACE8C009ACE8C009ACE8AF
:1008F000C009ACE8C0098D46704710B50446AFF397
:1009000000802046BDE81040FFF7B8BC00487047A3
:10091000C0AC012000BFFEE77047000070B5044680
:100920001D460023B5F5804F13D154F822300C48F2
:100930000340D1E9000640EA06108E6840EA06202E
:100940008E8940EA06408E693043034344F82230E2
:1009500003E06FF0704044F82200002070BD0000FA
:100960000000F0CF10B503460022086853F820209D
:1009700012480240D1E901042043CC6820430C69AD
:1009800020434C6920438C692043CC6920430C6A86
:1009900020434C6A20438C6A2043CC6A2043CC6BB2
:1009A00020430C6B204302438868082801D142F0A1
:1009B0004002086843F82020002010BD8000F0FFAE
:1009C00030B503460024501C53F8204004F0404446
:1009D000D1E9000540EA05108D6840EA05208D89BF
:1009E00040EA0545088A401E45EA0055087D801EFC
:1009F00045EA00608D6928430443501C43F82040B9
:100A0000002030BD70B50446A56D00F085F906469E
:100A100094F83500022808D08020606500BF0020CF
:100A200084F8340000BF012070BD2068006820F009
:100A30001600216808602068406920F08000216865
:100A40004861206C08B9A06C28B12068006820F0CB
:100A50000800216808602068006820F00100216813
:100A600008600FE000F058F9801B05280AD9202003
:100A7000606500BF002084F8340000BF032084F8C4
:100A80003500D1E72068006800F001000028E9D1B6
:100A900094F85C103F208840A86000BF002084F8D4
:100AA000340000BF012084F835000020BCE7014677
:100AB00091F83500022803D0802048650120704756
:100AC000052081F835000868006820F001000A68F8
:100AD00010600020F3E70000F8B502460B46002541
:100AE000002400200021DEE0012606FA01F51E6840
:100AF00006EA0504AC4275D11E7906F00306012E04
:100B000004D01E7906F00306022E13D190684F0020
:100B10000326BE40B0434F00DE68BE4030439060C5
:100B2000506801268E40B0431E79C6F300168E40F1
:100B3000304350601E7906F00306032E09D0D068BA
:100B40004F000326BE40B0434F009E68BE40304376
:100B5000D0601E7906F00306022E13D1CF0802F1F1
:100B6000200656F827004E07F70E0F26BE40B0436A
:100B70004F07FF0E1E69BE403043CF0802F120062A
:100B800046F8270010684F000326BE40B0431E7988
:100B900006F003064F00BE40304310605E6806F06A
:100BA0008056B6F1805F7DD100BF00260096404E92
:100BB000366846F480463E4F3E603E46366806F450
:100BC0008046009600BF00BF3A4E8F0856F82700B7
:100BD0008E07370F0F26BE40B043374EB24202D1C8
:100BE000002624E05EE0354EB24201D101261EE02F
:100BF000334EB24201D1022619E0324EB24201D147
:100C0000032614E0304EB24201D104260FE02F4EED
:100C1000B24201D105260AE02D4EB24201D106268C
:100C200005E02C4EB24201D1072600E008268F07CE
:100C30003F0FBE4030431F4E8F0846F82700264E18
:100C40003068A0435E6806F48036B6F5803F00D178
:100C50002043214E3060361D3068A0435E6806F4A4
:100C60000036B6F5003F00D120431B4E361D3060E4
:100C7000361D3068A0435E6806F48016B6F5801F06
:100C800000D12043144E08363060361D3068A04332
:100C90005E6806F40016B6F5001F00D120430E4E24
:100CA0000C363060491C1029FFF41EAFF8BD00005F
:100CB000443802400838014000000240000402406D
:100CC00000080240000C02400010024000140240E4
:100CD00000180240001C0240003C0140024613691B
:100CE0000B400BB1012000E00020704710B54269B5
:100CF00021EA020302EA010443EA0443836110BDCE
:100D00000AB1816101E00B0483617047014800680A
:100D1000000C7047002004E00148006870470000A4
:100D20001C00002003480068034909780844014971
:100D3000086070471C0000202400002010B50A48FD
:100D4000006840F40070084908600846006840F4F4
:100D500080600860032000F07FF80F2000F006F8A4
:100D600000F02AF8002010BD003C024070B5044697
:100D70000E4800784FF47A71B1FBF0F00C49096825
:100D8000B1FBF0F5284600F09BFC08B1012070BDD6
:100D9000102C07D200222146501E00F01EF80548F4
:100DA000046001E00120F2E70020F0E724000020C9
:100DB0000C00002020000020704701460846002853
:100DC00009DB00F01F0301229A4043099B0003F155
:100DD000E023C3F8002100BF70472DE9F05F804693
:100DE0000D461646002701F013FA074639462A46F3
:100DF000334601F00700C0F1070ABAF1040F02D927
:100E00004FF0040A01E0C0F1070AD14600F1040ADC
:100E1000BAF1070F02D24FF0000A01E0A0F1030A75
:100E2000D4464FF0010A0AFA09FAAAF1010A0AEABD
:100E3000020A0AFA0CFA4FF0010B0BFA0CFBABF1A9
:100E4000010B0BEA030B4AEA0B042146404601F072
:100E5000E7F9BDE8F09F000000BF00F00702064B75
:100E600019684FF6FF031940044B0B4343EA022174
:100E7000014B196000BF70470CED00E00000FA055F
:100E800070B504460D460CB9012070BD5848006885
:100E900000F00700A84209D255490D7008460068C5
:100EA00000F00700A84201D00120EEE7207800F012
:100EB000020002281DD1207800F00400042805D18A
:100EC0004C48006840F4E0504A490860207800F03F
:100ED0000800082805D14748006840F460404549AB
:100EE00008604448006820F0F000A16808434149C8
:100EF0000860207800F00100A8B36068012807D1DD
:100F00003C4808380068C0F34040B8B90120BCE74D
:100F10006068022802D06068032807D13548083885
:100F20000068C0F3406048B90120AEE73148083896
:100F30000068C0F3400008B90120A6E72D4800680A
:100F400020F00300616808432A490860FFF7E4FEC7
:100F5000064609E0FFF7E0FE801B41F28831884237
:100F600002D9032091E707E02248006800F00C0056
:100F70006168B0EB810FEDD11D48006800F00700FB
:100F8000A84209D91A490D700846006800F0070008
:100F9000A84201D0012078E7207800F0040004285E
:100FA00007D11448006820F4E050E1680843114973
:100FB0000860207800F00800082808D10D48006873
:100FC00020F46040216940EAC1000A49086000F04D
:100FD0003FF808490968C1F30311074A515CC8404A
:100FE0000649086006480068FFF7C0FE00204CE78D
:100FF000003C0240083802405A7100080C000020F2
:101000002000002001480068704700000C0000200C
:1010100000B5FFF7F7FF04490968C1F38221034ACD
:10102000515CC84000BD0000083802406A710008E9
:1010300000B5FFF7E7FF04490968C1F34231034AED
:10104000515CC84000BD0000083802406A710008C9
:101050002DE9F047002400250026A1462548006818
:1010600000F00C0020B1042805D008283AD105E092
:10107000DFF8849039E0DFF8849036E01D48001FE7
:10108000006800F03F041B48001F006800F4800067
:1010900078B11A481749091F0968C1F38811A0FBE4
:1010A00001700146224600233846FFF720F9054625
:1010B0000EE011480F49091F0968C1F38811A0FB10
:1010C00001700146224600233846FFF710F9054615
:1010D0000848001F0068C0F30140401C4600B5FBF3
:1010E000F6F902E0DFF8109000BF00BF4846BDE807
:1010F000F0870000083802400024F40000127A0053
:10110000F8B504460CB90120F8BD207800F00100C4
:10111000002874D0F948006800F00C0004280DD0B5
:10112000F648006800F00C00082813D1F348001FAF
:10113000006800F48000B0F5800F0BD1EF4808384C
:101140000068C0F34040002859D06068002856D19C
:101150000120D9E700BF6068B0F5803F08D1E748BB
:101160000838006840F48030E449083908601EE01F
:101170006068B0F5A02F0DD1E0480838006840F451
:101180008020DE49083908600846006840F4803055
:1011900008600CE0D9480838006820F48030D7494E
:1011A000083908600846006820F48020086000BF05
:1011B000606890B1FFF7B0FD054606E0FFF7ACFDB3
:1011C000401B642801D903209EE7CC4808380068FA
:1011D000C0F340400028F1D011E0FFF79DFD054627
:1011E00006E0FFF799FD401B642801D903208BE737
:1011F000C24808380068C0F340400028F1D1207888
:1012000000F0020002285FD1BC48006800F00C002A
:1012100058B1BA48006800F00C0008281CD1B74843
:10122000001F006800F48000B0B9B44808380068B6
:10123000C0F3400020B1E068012801D0012063E73D
:10124000AE480838006820F0F800216940EAC10083
:10125000AA490839086037E0E06800B30120A849CE
:101260000860FFF759FD054606E0FFF755FD401BF6
:10127000022801D9032047E7A04808380068C0F3D6
:1012800040000028F1D09D480838006820F0F800A0
:10129000216940EAC10099490839086014E000203A
:1012A00097490860FFF738FD054606E0FFF734FD73
:1012B000401B022801D9032026E79048083800681F
:1012C000C0F340000028F1D1207800F00800082881
:1012D0002CD16069A8B101208A490860FFF71CFD84
:1012E000054606E0FFF718FD401B022801D9032040
:1012F0000AE782486C300068C0F340000028F1D053
:1013000014E000207F490860FFF706FD054606E06F
:10131000FFF702FD401B022801D90320F4E67748BD
:101320006C300068C0F340000028F1D1207800F054
:101330000400042870D1002770483830006800F09D
:10134000805090B900BF002000906C483830006891
:1013500040F080506949383108600846006800F064
:101360008050009000BF00BF01276748006800F46C
:101370008070B0B96448006840F4807062490860C9
:10138000FFF7CAFC054606E0FFF7C6FC401B022833
:1013900001D90320B8E65C48006800F4807000289A
:1013A000F2D000BFA068012808D154486830006816
:1013B00040F001005149683108601DE0A06805282F
:1013C0000DD14E486830006840F004004B49683148
:1013D00008600846006840F0010008600CE04748DB
:1013E0006830006820F00100444968310860084610
:1013F000006820F00400086000BFA068A8B1FFF7F3
:101400008BFC054609E0FFF787FC401B41F2883161
:10141000884202D9032077E626E038486830006821
:10142000C0F340000028EED013E0FFF775FC05463E
:1014300008E0FFF771FC401B41F28831884201D976
:10144000032061E62D4868300068C0F340000028A2
:10145000EFD1012F07D129483830006820F08050A3
:1014600026493831086000BFA069002845D02348CC
:10147000006800F00C0008285DD0A069022845D162
:1014800000201F490866FFF747FC054606E0FFF706
:1014900043FC401B022801D9032035E617480838D1
:1014A0000068C0F340600028F1D1D4E90701084387
:1014B000616A40EA81110122A06AC2EB500041EA50
:1014C00000412C20005D41EA00600C49091F0860C2
:1014D00001200B490866FFF71FFC054606E0FFF7F1
:1014E0001BFC401B022801D903200DE603480838E5
:1014F0000068C0F340600028F1D049E0083802409D
:1015000000004742800E4742007000400020214901
:101510000866FFF701FC054606E0FFF7FDFB401BF0
:10152000022801D90320EFE51B480068C0F34060A2
:101530000028F2D12CE0A069012800D1E4E516488A
:10154000001D0668A069012820D006F48001E0692A
:1015500081421BD106F03F01206A814216D147F635
:10156000C0703040616AB0EB811F0FD106F440318A
:101570000122A06AC2EB5000B1EB004F06D106F089
:1015800070612C20005DB1EB006F01D00120BBE544
:101590000020B9E5000047420038024070B504461B
:1015A0000E4615460CB9012070BD94F8490028B9C3
:1015B000002084F84800204600F01CF804F10801DF
:1015C0002068FFF7CFF93146A2682068FFF7F8F9E5
:1015D0002946236BD4E90102FFF7A0F9A16820682E
:1015E00050F8210040F00100A268216841F8220073
:1015F0000020D9E710B586B0044600BF0020009057
:101600002248006840F00100204908600846006850
:1016100000F00100009000BF00BF00BF002000905C
:101620001A480838006840F008001849083908606E
:101630000846006800F00800009000BF00BF00BF2F
:10164000002000900846006840F01000086008463E
:10165000006800F01000009000BF00BF4CF2037063
:1016600001900220029001200390022004900C209F
:10167000059001A90648FFF72FFA4FF680700190F8
:1016800001A90448FFF728FA06B010BD3838024017
:10169000000C024000100240042808D14FF0E02165
:1016A000096941F004014FF0E022116107E04FF0B9
:1016B000E021096921F004014FF0E0221161704737
:1016C00070B504462546681EB0F1807F01D3012025
:1016D0000FE0681E4FF0E02148610F214FF0FF300E
:1016E00000F09EFD00204FF0E02188610720086196
:1016F000002070BD10B504460CB9012010BD94F84F
:101700003D0028B9002084F83C00204600F025F870
:10171000022084F83D00211D206800F0E5FA012038
:1017200084F8460000BF84F83E0001213F200155A7
:10173000402001554120015500BF00BF012084F821
:10174000420043200155442001554520015500BF6A
:10175000012084F83D000020D0E77047014691F851
:101760003D00012801D001207047022081F83D0092
:101770000868C06840F001000B68D8601A4B086820
:1017800098421BD00868B0F1804F17D0174B0868FB
:10179000984213D0164B086898420FD0154B086832
:1017A00098420BD0144B0868984207D0134B086836
:1017B000984203D0124B086898420CD108688068A0
:1017C00000F00702062A0CD00868006840F001000B
:1017D0000B68186005E00868006840F001000B68BD
:1017E00018600020C0E70000000001400004004035
:1017F00000080040000C004000040140004001408F
:10180000001800407047704701460022002391F8FD
:101810003D2091F83E3042EA030070472DE9F84F31
:101820000446206805682068C668206847694FF04C
:101830000009CA4605F00F09B9F1000F0AD105F0F9
:10184000200038B106F0200020B1204600F0EDFA6B
:10185000BDE8F88FB9F1000F72D007F0010018B998
:1018600006F4907000286BD005F0010030B106F44A
:10187000807018B1206C40F00100206405F0040075
:1018800030B107F0010018B1206C40F00200206474
:1018900005F0020030B107F0010018B1206C40F0F3
:1018A0000400206405F0080048B106F0200010B9DB
:1018B00007F0010018B1206C40F008002064206C93
:1018C00070B305F0200028B106F0200010B12046CA
:1018D00000F0ABFA20684069C0F3801A206C00F079
:1018E000080010B9BAF1000F23D0204600F072FAB8
:1018F0002068406900F04000402816D12068406907
:1019000020F0400021684861A06B50B15648A16B9F
:101910000865A06BFFF7CBF810B1A06B016D88478D
:101920000CE02046FFF76FFF08E02046FFF76BFF53
:1019300004E02046FFF767FF0020206488E7FFE708
:10194000206B012879D105F01000002875D006F031
:101950001000002871D000BF0020009020680068AF
:10196000009020684068009000BF00BF2068406978
:1019700000F04000402839D1A06B006840681FFA91
:1019800080F8B8F1000F30D0A08D40452DDDA4F8CF
:101990002E80A06BC069B0F5807F1FD02068C06822
:1019A00020F480702168C8602068406920F0010040
:1019B000216848612068406920F040002168486142
:1019C000202084F83E00002020632068C06820F0BA
:1019D00010002168C860A06BFFF714F8A08DE28D9D
:1019E000801A81B22046FFF70DFF31E7A08DE18D0F
:1019F000401A1FFA80F8E08DE8B1B8F1000F1AD054
:101A00002068C06820F490702168C8602068406930
:101A100020F0010021684861202084F83E00002069
:101A200020632068C06820F010002168C86041462B
:101A30002046FFF7E7FE0BE7FFE705F0800030B137
:101A400006F0800018B1204600F087FB00E705F0A3
:101A5000400030B106F0400018B1204600F0D5F942
:101A6000F6E600BFF4E60000C11D000810B504460C
:101A70000CB9012010BDA06900B100E000BF94F8CE
:101A80003D0028B9002084F83C00204600F028F8EA
:101A9000242084F83D002068C06820F400502168AC
:101AA000C860204600F020FA2068006920F49040C9
:101AB000216808612068406920F02A002168486197
:101AC0002068C06840F400502168C860002020648D
:101AD000202084F83D0084F83E000020CAE7000082
:101AE00010B586B004462E492068884255D100BF03
:101AF00000BF002000902B48006840F010002949EA
:101B000008600846006800F01000009000BF00BFA9
:101B100000BF00BF00BF00200090224814380068BA
:101B200040F001001F49143908600846006800F0C1
:101B30000100009000BF00BF00BF00BF00BF002039
:101B400000900846006840F0010008600846006800
:101B500000F00100009000BF00BF00BF48150190D9
:101B6000022002900120039002200490072005909B
:101B700001A90D48FEF7B0FF4FF4806001900720E7
:101B8000059001A90848FEF7A7FF2520FFF715F9E2
:101B9000032211462520FFF720F906B010BD0000F2
:101BA00000100140443802400000024070B5044675
:101BB0000D46164694F83E00202816D105B10EB900
:101BC000012070BD00BF94F83C00012801D1022023
:101BD000F7E7012084F83C0000BF00202063324674
:101BE0002946204600F096FAEBE70220E9E70000DC
:101BF0001D4A0168914236D11C49098801F400410F
:101C000089BB1A49098801F4804171B118490978E2
:101C10000A2903D00021154A118024E013490988BC
:101C200041F40041114A11801DE0114909780D2944
:101C300006D10E49098841F480410C4A118012E016
:101C40000B490978094A1288C2F30D02094B9954CD
:101C500006490988491C054A118011460988C72987
:101C600001DD0021118070470010014018000020A4
:101C70001A00002098010020704700BFFEE700BF57
:101C8000FEE770477047704710B5FFF74BF810BD7F
:101C90000348006840F47000014908607047000084
:101CA00088ED00E010B50E480068C06800F0010043
:101CB00078B10C49086980470020094909684862E1
:101CC00000BF642006490968C86264210448C160F5
:101CD00000BF6FF0010002490968086110BD0000F3
:101CE000540300208000002010B50268294B984260
:101CF0000ED0B0F1804F0BD0274B984208D0274B25
:101D0000984205D0264B984202D0264B984203D1E8
:101D100022F070024B681A431E4B984220D0B0F15B
:101D2000804F1DD01C4B98421AD01C4B984217D0A4
:101D30001B4B984214D01B4B984211D01A4B98421F
:101D40000ED01A4B98420BD0194B984208D0194B21
:101D5000984205D0184B984202D0184B984203D1B4
:101D600022F44072CB681A4322F080034C6943EAA4
:101D7000040202608B68C3620B688362054B984261
:101D800002D0084B984201D10B69036301234361E0
:101D900010BD0000000001400004004000080040A9
:101DA000000C00400004014000400140004401409C
:101DB0000048014000180040001C00400020004086
:101DC00070B50546AC6B0020E085E0842046FFF747
:101DD0001AFD70BD0168C96821F490710268D16074
:101DE0000168496921F0010102685161016B012913
:101DF00005D10168C96821F010010268D160202175
:101E000080F83E1000210163704710B50446206839
:101E1000C06820F040002168C860202084F83D00A0
:101E20002046FFF729FF002010BD70B5044694F846
:101E30003E00222856D1A068B0F5805F0CD1206901
:101E400050B90025A66A20684068C0F308003080B9
:101E5000A06A801CA06215E0A56A0026A068B0F503
:101E6000805F03D0A06828B9206918B9206840684D
:101E7000287004E02068406800F07F002870A06AA5
:101E8000401CA062E08D401E80B2E08540BB20680F
:101E9000C06820F020002168C8602068C06820F475
:101EA00080702168C8602068406920F001002168C6
:101EB0004861202084F83E00206B01280AD1206868
:101EC000C06820F010002168C860A18D2046FFF78F
:101ED00099FC02E02046FFF78BFE0020206370BDD6
:101EE0000020FCE70220FAE72DE9F84F04462068BD
:101EF000006920F44050E1680843216808612169C5
:101F0000A068084361690843E169084300902068BC
:101F1000C06849F20C618843009908432168C86091
:101F20002068406920F44070A16908432168486135
:101F300076492068884203D075492068884203D1D9
:101F4000FFF776F8814602E0FFF762F88146E06924
:101F5000B0F5004F6CD102206168A0FB0150034630
:101F60001920A9FB007001462A463846FEF7BFF942
:101F70006421B0FBF1F04FEA001A02206168A0FB77
:101F800001510B461920A9FB00712A463846FEF77D
:101F9000AEF9834602206168A0FB01500346192078
:101FA000A9FB00712A463846FEF7A1F96421B0FB6F
:101FB000F1F000EBC00101EB0010ABEB800032212F
:101FC00001EBC0006421B0FBF1F000F0F8000AEB77
:101FD000400A02206168A0FB015003461920A9FBBA
:101FE000007001462A463846FEF781F983460220F2
:101FF0006168A0FB015003461920A9FB00712A4625
:102000003846FEF774F96421B0FBF1F000EBC00133
:1020100001EB0010ABEB8000322101EBC00064212A
:10202000B0FBF1F000F007005044216888606AE0DE
:1020300004206168A0FB015003461920A9FB007031
:1020400001462A463846FEF752F982460420616866
:10205000A0FB015003461920A9FB007001462A4647
:102060003846FEF744F96421B0FBF1F000EBC00103
:1020700001EB0010AAEB8000322101EB001064217B
:10208000B0FBF1F000F0F00A04206168A0FB0170E1
:1020900003461920A9FB00513A462846FEF727F9C6
:1020A0006421B0FBF1F00AEB001A04206168A0FB88
:1020B00001510B461920A9FB00712A463846FEF74C
:1020C00016F9834604206168A0FB015003461920DD
:1020D000A9FB007001462A463846FEF708F964213C
:1020E000B0FBF1F000EBC00101EB0010ABEB8000A6
:1020F000322101EB00106421B0FBF1F000F00F0081
:10210000504421688860BDE8F88F0000001001404D
:102110000014014010B5034699629A85DA850020C3
:102120001864222083F83E0000BF002083F83C00A2
:1021300000BF1868C06840F480701C68E0601868D0
:10214000406940F001001C6860611868C06840F098
:1021500020001C68E060002010BD014691F83D00A1
:10216000212828D18868B0F5805F0BD1086948B96B
:102170000A6A1088C0F308000B685860086A801C5F
:10218000086205E00B6A581C086218780B685860F2
:10219000C88C401E80B2C88458B90868C06820F056
:1021A00080000B68D8600868C06840F040000B6889
:1021B000D860002070470220FCE7000070B50024C2
:1021C0000F4D1048FFF72AFB00BF03E0641CAC4230
:1021D00000D904E00B48FFF717FB2028F6D100BF19
:1021E000002403E0641CAC4200D906E00122064949
:1021F0000448FFF7DBFC0028F4D100BF70BD0000ED
:10220000FFFF0100600200201A00002000BFFEE76F
:1022100002480068C0F30220704700000CED00E0A7
:1022200010B5002804DB0A07130E054A135406E014
:102230000A07140E034A00F00F031B1FD45410BDED
:1022400000E400E018ED00E030380A2801D2012057
:1022500070470020704700BF7047000010B504466B
:102260000420FFF719FA0148046010BD1000002097
:1022700070B504464FF4077094FBF0F594FBF0F151
:1022800000FB114603E0074800F00EF86D1E002D1C
:10229000F9D12EB14FF47A7106FB01F000F004F889
:1022A00070BD0000603D080070B5034600224FF08D
:1022B000E02675690D4E366803FB06F44FF0E02604
:1022C000B16910E04FF0E026B06988420BD0884237
:1022D00002D20E1A324402E02E1A0E443244014653
:1022E000A24200D300E0EDE700BF70BD1000002067
:1022F00000BF054A126802F04002002AF9D0C2B2BB
:10230000014B5A60704700000010014000B587B0D3
:1023100000BF00BF002001903848006840F0100066
:10232000364908600846006800F01000019000BFC0
:1023300000BF00BF00BF00BF00200190084600683A
:1023400040F0100008600846006800F0100001909E
:1023500000BF00BF00BF00BF00BF002001900846C3
:10236000006840F0100008600846006800F01000A7
:10237000019000BF00BF00BF00BF00BF0020019060
:102380000846006840F0010008600846006800F058
:102390000100019000BF00BF00BF1020029000208C
:1023A0000390012004900220059002A91448FEF732
:1023B00093FB08200290002003900120049002204B
:1023C000059002A90E48FEF787FB0420029000202A
:1023D0000390012004900220059002A90848FEF70E
:1023E0007BFB0120029000200390022004900590C6
:1023F00002A90448FEF770FB07B000BD3038024068
:10240000001002400000024070B50446002514B1DF
:1024100001202B4908702A480078002834D0102168
:102420002848FEF75BFC78B108212648FEF756FCE9
:1024300050B104212348FEF751FC28B10121224864
:10244000FEF74CFC01281FD10A20FFF711FF0020E6
:102450001B49087010211B48FEF740FC00B90125FC
:1024600008211848FEF73AFC00B902250421154856
:10247000FEF734FC00B9032501211348FEF72EFCBA
:1024800001281BD1042519E010210E48FEF726FC77
:10249000012813D108210B48FEF720FC01280DD19B
:1024A00004210848FEF71AFC012807D1012106483B
:1024B000FEF714FC10B9012001490870284670BDD0
:1024C00030000020001002400000024070B50446B9
:1024D000002609480588408845430021084602F047
:1024E000ADFD02F059FF00BF02E004480480761CF5
:1024F000AE42FAD370BD0000F40200208000006CF0
:1025000010B5044649488471002C45D1F020474954
:1025100008804FF4A07048800846808845F210512A
:10252000884210D14FF43050404908814FF4285070
:1025300048814FF42C5088814FF4F07008804FF49C
:10254000487048801AE03948808841F66311884213
:102550000DD12C20354908812B2048812A208881E3
:102560004FF4F07008804FF44870488006E02C204B
:102570002E4908812A2048812B2088812B48808879
:1025800045F2103188424CD14FF4A07027490880A1
:102590004FF4F070488044E04FF4A0702349088065
:1025A000F02048800846808845F21051884210D1BA
:1025B0004FF430501D4908814FF4285048814FF4A2
:1025C0002C5088814FF4487008804FF4F070488098
:1025D0001AE01648808841F6631188420DD12C20FC
:1025E000124908812A2048812B2088814FF44870A5
:1025F00008804FF4F070488006E02C200B490881D9
:102600002A2048812B2088810848808845F2103193
:10261000884206D14FF4F070044908804FF4A0704E
:102620004880002002F0F2FB10BD0000F402002000
:1026300070B505460E4614463146284602F0FEFCAB
:1026400002F0AAFE01490C8070BD00008000006C01
:1026500010B5CF2002F094FE002002F085FEC120CC
:1026600002F082FE302002F07FFEED2002F088FEB4
:10267000642002F079FE032002F076FE122002F0C0
:1026800073FE812002F070FEE82002F079FE8520C2
:1026900002F06AFE102002F067FE7A2002F064FE6B
:1026A000CB2002F06DFE392002F05EFE2C2002F0FD
:1026B0005BFE002002F058FE342002F055FE02209E
:1026C00002F052FEF72002F05BFE202002F04CFEEA
:1026D000EA2002F055FE002002F046FE002002F043
:1026E00043FEC02002F04CFE1B2002F03DFEC12044
:1026F00002F046FE012002F037FEC52002F040FE47
:10270000302002F031FE302002F02EFEC72002F011
:1027100037FEB72002F028FE362002F031FE4820B6
:1027200002F022FE3A2002F02BFE552002F01CFEA1
:10273000B12002F025FE002002F016FE1A2002F061
:1027400013FEB62002F01CFE0A2002F00DFEA220AD
:1027500002F00AFEF22002F013FE002002F004FE56
:10276000262002F00DFE012002F0FEFDE02002F026
:1027700007FE0F2002F0F8FD2A2002F0F5FD2820C8
:1027800002F0F2FD082002F0EFFD0E2002F0ECFD59
:10279000082002F0E9FD542002F0E6FDA92002F035
:1027A000E3FD432002F0E0FD0A2002F0DDFD0F20F2
:1027B00002F0DAFD002002F0D7FD002002F0D4FD87
:1027C000002002F0D1FD002002F0CEFDE12002F059
:1027D000D7FD002002F0C8FD152002F0C5FD17202E
:1027E00002F0C2FD072002F0BFFD112002F0BCFD87
:1027F000062002F0B9FD2B2002F0B6FD562002F0B3
:10280000B3FD3C2002F0B0FD052002F0ADFD10202C
:1028100002F0AAFD0F2002F0A7FD3F2002F0A4FD68
:102820003F2002F0A1FD0F2002F09EFD2B2002F0C0
:10283000A7FD002002F098FD002002F095FD012088
:1028400002F092FD3F2002F08FFD2A2002F098FD59
:10285000002002F089FD002002F086FD002002F039
:1028600083FDEF2002F080FD112002F089FD782029
:10287000FFF7FEFC292002F083FD10BD10B5ED200E
:1028800002F07EFD012002F06FFDFE2002F06CFDE3
:10289000EE2002F075FDDE2002F066FD212002F040
:1028A00063FDF12002F06CFD012002F05DFDDF20F0
:1028B00002F066FD102002F057FDC42002F060FD1A
:1028C0008F2002F051FDC62002F05AFD002002F0D8
:1028D0004BFDE22002F048FDE22002F045FDE2203F
:1028E00002F042FDBF2002F04BFDAA2002F03CFDA9
:1028F000B02002F045FD0D2002F036FD002002F070
:1029000033FD0D2002F030FD002002F02DFD1120DE
:1029100002F02AFD002002F027FD192002F024FD1C
:10292000002002F021FD212002F01EFD002002F017
:102930001BFD2D2002F018FD002002F015FD3D20AA
:1029400002F012FD002002F00FFD5D2002F00CFDF0
:10295000002002F009FD5D2002F006FD002002F0DB
:1029600003FDB12002F00CFD802002F0FDFC0020F0
:1029700002F0FAFC8B2002F0F7FC002002F0F4FCDD
:10298000962002F0F1FC002002F0EEFCB22002F0F2
:10299000F7FC002002F0E8FC002002F0E5FC022039
:1029A00002F0E2FC002002F0DFFC032002F0DCFC7D
:1029B000002002F0D9FCB32002F0E2FC002002F07B
:1029C000D3FC002002F0D0FC002002F0CDFC00205F
:1029D00002F0CAFC002002F0C7FC002002F0C4FC98
:1029E000002002F0C1FC002002F0BEFC002002F03A
:1029F000BBFC002002F0B8FC002002F0B5FC002077
:102A000002F0B2FC002002F0AFFC002002F0ACFCAF
:102A1000002002F0A9FC002002F0A6FC002002F039
:102A2000A3FC002002F0A0FC002002F09DFC00208E
:102A300002F09AFC002002F097FC002002F094FCC7
:102A4000002002F091FC002002F08EFCB42002F085
:102A500097FC8B2002F088FC002002F085FC962079
:102A600002F082FC002002F07FFCA12002F07CFC3E
:102A7000002002F079FCB52002F082FC022002F076
:102A800073FC002002F070FC032002F06DFC0020BB
:102A900002F06AFC042002F067FC002002F064FCF3
:102AA000B62002F06DFC002002F05EFC002002F077
:102AB0005BFCB72002F064FC002002F055FC002013
:102AC00002F052FC3F2002F04FFC002002F04CFCD0
:102AD0005E2002F049FC002002F046FC642002F077
:102AE00043FC002002F040FC8C2002F03DFC002062
:102AF00002F03AFCAC2002F037FC002002F034FC7B
:102B0000DC2002F031FC002002F02EFC702002F0EC
:102B10002BFC002002F028FC902002F025FC002075
:102B200002F022FCEB2002F01FFC002002F01CFC53
:102B3000DC2002F019FC002002F016FCB82002F0A4
:102B40001FFC002002F010FC002002F00DFC002011
:102B500002F00AFC002002F007FC002002F004FC56
:102B6000002002F001FC002002F0FEFB002002F039
:102B7000FBFBBA2002F004FC242002F0F5FB00204D
:102B800002F0F2FB002002F0EFFB002002F0ECFB71
:102B9000C12002F0F5FB202002F0E6FB002002F04D
:102BA000E3FB542002F0E0FB002002F0DDFBFF20FD
:102BB00002F0DAFB002002F0D7FBC22002F0E0FBBB
:102BC0000A2002F0D1FB002002F0CEFB042002F02C
:102BD000CBFB002002F0C8FBC32002F0D1FB3C205D
:102BE00002F0C2FB002002F0BFFB3A2002F0BCFB67
:102BF000002002F0B9FB392002F0B6FB002002F001
:102C0000B3FB372002F0B0FB002002F0ADFB3C200C
:102C100002F0AAFB002002F0A7FB362002F0A4FB82
:102C2000002002F0A1FB322002F09EFB002002F007
:102C30009BFB2F2002F098FB002002F095FB2C203C
:102C400002F092FB002002F08FFB292002F08CFBA7
:102C5000002002F089FB262002F086FB002002F013
:102C600083FB242002F080FB002002F07DFB242067
:102C700002F07AFB002002F077FB232002F074FBC5
:102C8000002002F071FB3C2002F06EFB002002F0FD
:102C90006BFB362002F068FB002002F065FB32205F
:102CA00002F062FB002002F05FFB2F2002F05CFBD1
:102CB000002002F059FB2C2002F056FB002002F00D
:102CC00053FB292002F050FB002002F04DFB262090
:102CD00002F04AFB002002F047FB242002F044FBF4
:102CE000002002F041FB242002F03EFB002002F015
:102CF0003BFB232002F038FB002002F035FBC42010
:102D000002F03EFB622002F02FFB002002F02CFBC1
:102D1000052002F029FB002002F026FB842002F0AF
:102D200023FB002002F020FBF02002F01DFB00201E
:102D300002F01AFB182002F017FB002002F014FB2F
:102D4000A42002F011FB002002F00EFB182002F07C
:102D50000BFB002002F008FB502002F005FB0020D6
:102D600002F002FB0C2002F0FFFA002002F0FCFA55
:102D7000172002F0F9FA002002F0F6FA952002F08E
:102D8000F3FA002002F0F0FAF32002F0EDFA00204E
:102D900002F0EAFAE62002F0E7FA002002F0E4FA94
:102DA000C52002F0EDFA322002F0DEFA002002F037
:102DB000DBFA442002F0D8FA002002F0D5FA6520B0
:102DC00002F0D2FA002002F0CFFA762002F0CCFA1C
:102DD000002002F0C9FA882002F0C6FA002002F0B2
:102DE000C3FAC62002F0CCFA202002F0BDFA00207F
:102DF00002F0BAFA172002F0B7FA002002F0B4FA93
:102E0000012002F0B1FA002002F0AEFAC72002F071
:102E1000B7FA002002F0A8FA002002F0A5FA00207C
:102E200002F0A2FA002002F09FFAC82002F0A8FAED
:102E3000002002F099FA002002F096FA002002F039
:102E400093FA002002F090FAC92002F099FA0020CB
:102E500002F08AFA002002F087FA002002F084FAD9
:102E6000002002F081FA002002F07EFA002002F039
:102E70007BFA002002F078FA002002F075FA0020B8
:102E800002F072FA002002F06FFA002002F06CFAF1
:102E9000002002F069FA002002F066FA002002F039
:102EA00063FA002002F060FA002002F05DFAE020F0
:102EB00002F066FA162002F057FA002002F054FAE7
:102EC0001C2002F051FA002002F04EFA212002F0FC
:102ED0004BFA002002F048FA362002F045FA0020B2
:102EE00002F042FA462002F03FFA002002F03CFADB
:102EF000522002F039FA002002F036FA642002F083
:102F000033FA002002F030FA7A2002F02DFA002085
:102F100002F02AFA8B2002F027FA002002F024FAAD
:102F2000992002F021FA002002F01EFAA82002F0F7
:102F30001BFA002002F018FAB92002F015FA00205E
:102F400002F012FAC42002F00FFA002002F00CFA8C
:102F5000CA2002F009FA002002F006FAD22002F09C
:102F600003FA002002F000FAD92002F0FDF9002057
:102F700002F0FAF9E02002F0F7F9002002F0F4F98B
:102F8000F32002F0F1F9002002F0EEF9E12002F066
:102F9000F7F9162002F0E8F9002002F0E5F91C200C
:102FA00002F0E2F9002002F0DFF9222002F0DCF961
:102FB000002002F0D9F9362002F0D6F9002002F004
:102FC000D3F9452002F0D0F9002002F0CDF95220CB
:102FD00002F0CAF9002002F0C7F9642002F0C4F937
:102FE000002002F0C1F97A2002F0BEF9002002F0C0
:102FF000BBF98B2002F0B8F9002002F0B5F9992056
:1030000002F0B2F9002002F0AFF9A82002F0ACF90A
:10301000002002F0A9F9B92002F0A6F9002002F080
:10302000A3F9C42002F0A0F9002002F09DF9CA2003
:1030300002F09AF9002002F097F9D22002F094F9F8
:10304000002002F091F9D82002F08EF9002002F061
:103050008BF9E02002F088F9002002F085F9F320D6
:1030600002F082F9002002F07FF9E22002F088F9F4
:10307000052002F079F9002002F076F90B2002F029
:1030800073F9002002F070F91B2002F06DF90020A6
:1030900002F06AF9342002F067F9002002F064F9C6
:1030A000442002F061F9002002F05EF94F2002F0A6
:1030B0005BF9002002F058F9612002F055F9002078
:1030C00002F052F9792002F04FF9002002F04CF999
:1030D000882002F049F9002002F046F9972002F01A
:1030E00043F9002002F040F9A62002F03DF900204B
:1030F00002F03AF9B72002F037F9002002F034F973
:10310000C22002F031F9002002F02EF9C72002F0AF
:103110002BF9002002F028F9D12002F025F9002037
:1031200002F022F9D62002F01FF9002002F01CF96B
:10313000DD2002F019F9002002F016F9F32002F068
:1031400013F9002002F010F9E32002F019F905202C
:1031500002F00AF9002002F007F90A2002F004F94F
:10316000002002F001F91C2002F0FEF8002002F01D
:10317000FBF8332002F0F8F8002002F0F5F84420C4
:1031800002F0F2F8002002F0EFF8502002F0ECF824
:10319000002002F0E9F8622002F0E6F8002002F0D8
:1031A000E3F8782002F0E0F8002002F0DDF8882053
:1031B00002F0DAF8002002F0D7F8972002F0D4F8F5
:1031C000002002F0D1F8A62002F0CEF8002002F094
:1031D000CBF8B72002F0C8F8002002F0C5F8C220F2
:1031E00002F0C2F8002002F0BFF8C72002F0BCF8DD
:1031F000002002F0B9F8D12002F0B6F8002002F069
:10320000B3F8D52002F0B0F8002002F0ADF8DD20D0
:1032100002F0AAF8002002F0A7F8F32002F0A4F8C8
:10322000002002F0A1F8E42002F0AAF8012002F048
:103230009BF8002002F098F8012002F095F8002099
:1032400002F092F8022002F08FF8002002F08CF8D1
:103250002A2002F089F8002002F086F83C2002F0D3
:1032600083F8002002F080F84B2002F07DF8002067
:1032700002F07AF85D2002F077F8002002F074F88E
:10328000742002F071F8002002F06EF8842002F041
:103290006BF8002002F068F8932002F065F8002037
:1032A00002F062F8A22002F05FF8002002F05CF861
:1032B000B32002F059F8002002F056F8BE2002F0C8
:1032C00053F8002002F050F8C42002F04DF800201E
:1032D00002F04AF8CD2002F047F8002002F044F84E
:1032E000D32002F041F8002002F03EF8DD2002F089
:1032F0003BF8002002F038F8F32002F035F8002007
:1033000002F032F8E52002F03BF8002002F02CF841
:10331000002002F029F8002002F026F8002002F038
:1033200023F8022002F020F8002002F01DF82920E6
:1033300002F01AF8002002F017F83C2002F014F80E
:10334000002002F011F84B2002F00EF8002002F0ED
:103350000BF85D2002F008F8002002F005F8742058
:1033600002F002F8002001F0FFFF842001F0FCFFD2
:10337000002001F0F9FF932001F0F6FF002001F09A
:10338000F3FFA22001F0F0FF002001F0EDFFB320D9
:1033900001F0EAFF002001F0E7FFBE2001F0E4FFAA
:1033A000002001F0E1FFC42001F0DEFF002001F069
:1033B000DBFFCD2001F0D8FF002001F0D5FFD320A6
:1033C00001F0D2FF002001F0CFFFDC2001F0CCFFA4
:1033D000002001F0C9FFF32001F0C6FF002001F03A
:1033E000C3FFE62001F0CCFF112001F0BDFF00205B
:1033F00001F0BAFF342001F0B7FF002001F0B4FF64
:10340000562001F0B1FF002001F0AEFF762001F060
:10341000ABFF002001F0A8FF772001F0A5FF0020FE
:1034200001F0A2FF662001F09FFF002001F09CFF49
:10343000882001F099FF002001F096FF992001F00B
:1034400093FF002001F090FFBB2001F08DFF0020D2
:1034500001F08AFF992001F087FF002001F084FF2E
:10346000662001F081FF002001F07EFF552001F071
:103470007BFF002001F078FF552001F075FF002050
:1034800001F072FF452001F06FFF002001F06CFF9A
:10349000432001F069FF002001F066FF442001F0A5
:1034A00063FF002001F060FFE72001F069FF322098
:1034B00001F05AFF002001F057FF552001F054FFA2
:1034C000002001F051FF762001F04EFF002001F0B6
:1034D0004BFF662001F048FF002001F045FF672008
:1034E00001F042FF002001F03FFF672001F03CFFA8
:1034F000002001F039FF872001F036FF002001F0A5
:1035000033FF992001F030FF002001F02DFFBB2098
:1035100001F02AFF002001F027FF992001F024FF8D
:10352000002001F021FF772001F01EFF002001F0B4
:103530001BFF442001F018FF002001F015FF56206A
:1035400001F012FF002001F00FFF232001F00CFF1B
:10355000002001F009FF332001F006FF002001F0F8
:1035600003FF452001F000FF002001F0FDFEE820F0
:1035700001F006FF002001F0F7FE002001F0F4FE4C
:10358000992001F0F1FE002001F0EEFE872001F00D
:10359000EBFE002001F0E8FE882001F0E5FE0020AF
:1035A00001F0E2FE772001F0DFFE002001F0DCFEFA
:1035B000662001F0D9FE002001F0D6FE882001F03F
:1035C000D3FE002001F0D0FEAA2001F0CDFE0020A5
:1035D00001F0CAFEBB2001F0C7FE002001F0C4FECE
:1035E000992001F0C1FE002001F0BEFE662001F02E
:1035F000BBFE002001F0B8FE552001F0B5FE002012
:1036000001F0B2FE552001F0AFFE002001F0ACFE4B
:10361000442001F0A9FE002001F0A6FE442001F0A4
:10362000A3FE002001F0A0FE552001F09DFE002029
:1036300001F09AFEE92001F0A3FEAA2001F094FE19
:10364000002001F091FE002001F08EFE002001F02C
:103650008BFE002001F094FEAA2001F085FECF2011
:1036600001F08EFE002001F07FFE002001F07CFEC4
:10367000002001F079FE002001F076FE002001F02C
:1036800073FE002001F070FE002001F06DFE0020AE
:1036900001F06AFE002001F067FE002001F064FEE8
:1036A000002001F061FE002001F05EFE002001F02C
:1036B0005BFE002001F058FE002001F055FE0020C6
:1036C00001F052FE002001F04FFEF02001F058FE04
:1036D000002001F049FE502001F046FE002001F0DC
:1036E00043FE002001F040FE002001F03DFEF320EB
:1036F00001F046FE002001F037FEF92001F040FE07
:10370000062001F031FE102001F02EFE292001F0EC
:103710002BFE002001F028FE3A2001F031FE55205A
:1037200001F022FE112001F02BFE6420FEF7A0FD27
:10373000292001F025FE352001F022FE002001F0B5
:1037400013FE512001F01CFEFF2001F00DFE53205E
:1037500001F016FE2C2001F007FE552001F010FEAE
:10376000822001F001FE2C2001F00AFE10BD10B5F0
:1037700055214FF4704001F019FEAA214FF20100CB
:1037800001F014FE52214FF2020001F00FFE082159
:103790004FF2030001F00AFE01214FF2040001F094
:1037A00005FE0D214FF4304001F000FE0D214BF2DB
:1037B000010001F0FBFD0D214BF2020001F0F6FDCE
:1037C00034214FF4364001F0F1FD34214BF2016019
:1037D00001F0ECFD34214BF2026001F0E7FD0D2118
:1037E0004FF4314001F0E2FD0D214BF2011001F0E8
:1037F000DDFD0D214BF2021001F0D8FD34214FF414
:10380000374001F0D3FD34214BF2017001F0CEFDC1
:1038100034214BF2027001F0C9FD00214FF4324017
:1038200001F0C4FD00214BF2012001F0BFFD002199
:103830004BF2022001F0BAFD24214FF4384001F090
:10384000B5FD24214BF6010001F0B0FD24214BF61B
:10385000020001F0ABFD01214FF43F4001F0A6FD55
:103860000F214FF4334001F0A1FD0F214BF2013045
:1038700001F09CFD0F214BF2023001F097FD342145
:103880004FF4394001F092FD34214BF6011001F064
:103890008DFD34214BF6021001F088FD08214FF414
:1038A000354001F083FD08214BF2015001F07EFD0F
:1038B00008214BF2025001F079FD03214FF4424000
:1038C00001F074FD24214FF43A4001F06FFD2421F2
:1038D0004BF6012001F06AFD24214BF6022001F095
:1038E00065FD00214FF43C4001F060FD78214BF66E
:1038F000014001F05BFD00214BF6024001F056FD56
:1039000000214FF43D4001F051FD78214BF601506C
:1039100001F04CFD00214BF6025001F047FD002163
:103920004FF43E4001F042FD64214BF6016001F08E
:103930003DFD00214FF4514001F038FD33214DF29F
:10394000011001F033FD00214DF2021001F02EFDB7
:1039500034214DF2031001F029FD00214DF2041035
:1039600001F024FD3A214DF2051001F01FFD002168
:103970004DF2061001F01AFD4A214DF2071001F038
:1039800015FD00214DF2081001F010FD5C214DF2F3
:10399000091001F00BFD00214DF20A1001F006FDA7
:1039A00081214DF20B1001F001FD00214DF20C10B0
:1039B00001F0FCFCA6214DF20D1001F0F7FC0021F6
:1039C0004DF20E1001F0F2FCE5214DF20F1001F066
:1039D000EDFC01214DF2101001F0E8FC13214DF235
:1039E000111001F0E3FC01214DF2121001F0DEFC98
:1039F00054214DF2131001F0D9FC01214DF21410A5
:103A000001F0D4FC82214DF2151001F0CFFC012110
:103A10004DF2161001F0CAFCCA214DF2171001F048
:103A2000C5FC02214DF2181001F0C0FC00214DF23E
:103A3000191001F0BBFC02214DF21A1001F0B6FC86
:103A400001214DF21B1001F0B1FC02214DF21C10BE
:103A500001F0ACFC34214DF21D1001F0A7FC022155
:103A60004DF21E1001F0A2FC67214DF21F1001F073
:103A70009DFC02214DF2201001F098FC84214DF2B2
:103A8000211001F093FC02214DF2221001F08EFC76
:103A9000A4214DF2231001F089FC02214DF22410E3
:103AA00001F084FCB7214DF2251001F07FFC0221CA
:103AB0004DF2261001F07AFCCF214DF2271001F0D3
:103AC00075FC02214DF2281001F070FCDE214DF250
:103AD000291001F06BFC02214DF22A1001F066FC66
:103AE000F2214DF22B1001F061FC02214DF22C105D
:103AF00001F05CFCFE214DF22D1001F057FC03217A
:103B00004DF22E1001F052FC10214DF22F1001F059
:103B10004DFC03214DF2301001F048FC33214DF2F1
:103B2000311001F043FC03214DF2321001F03EFC54
:103B30006D214DF2331001F039FC00214FF4524059
:103B400001F034FC33214DF2012001F02FFC002163
:103B50004DF2022001F02AFC34214DF2032001F045
:103B600025FC00214DF2042001F020FC3A214DF209
:103B7000052001F01BFC00214DF2062001F016FC8F
:103B80004A214DF2072001F011FC00214DF20820DE
:103B900001F00CFC5C214DF2092001F007FC002132
:103BA0004DF20A2001F002FC81214DF20B2001F0C0
:103BB000FDFB00214DF20C2001F0F8FBA6214DF297
:103BC0000D2001F0F3FB00214DF20E2001F0EEFB81
:103BD000E5214DF20F2001F0E9FB01214DF210200B
:103BE00001F0E4FB13214DF2112001F0DFFB012174
:103BF0004DF2122001F0DAFB54214DF2132001F0B6
:103C0000D5FB01214DF2142001F0D0FB82214DF2B1
:103C1000152001F0CBFB01214DF2162001F0C6FB6F
:103C2000CA214DF2172001F0C1FB02214DF21820EC
:103C300001F0BCFB00214DF2192001F0B7FB02217D
:103C40004DF21A2001F0B2FB01214DF21B2001F0D0
:103C5000ADFB02214DF21C2001F0A8FB34214DF2F6
:103C60001D2001F0A3FB02214DF21E2001F09EFB5E
:103C700067214DF21F2001F099FB02214DF2202017
:103C800001F094FB84214DF2212001F08FFB0221F1
:103C90004DF2222001F08AFBA4214DF2232001F0F5
:103CA00085FB02214DF2242001F080FBB7214DF26B
:103CB000252001F07BFB02214DF2262001F076FB4E
:103CC000CF214DF2272001F071FB02214DF2282077
:103CD00001F06CFBDE214DF2292001F067FB02218F
:103CE0004DF22A2001F062FBF2214DF22B2001F06F
:103CF0005DFB02214DF22C2001F058FBFE214DF21C
:103D00002D2001F053FB03214DF22E2001F04EFB3C
:103D100010214DF22F2001F049FB03214DF23020FC
:103D200001F044FB33214DF2312001F03FFB032130
:103D30004DF2322001F03AFB6D214DF2332001F0BB
:103D400035FB00214FF4534001F030FB33214DF29D
:103D5000013001F02BFB00214DF2023001F026FB77
:103D600034214DF2033001F021FB00214DF20430EB
:103D700001F01CFB3A214DF2053001F017FB002148
:103D80004DF2063001F012FB4A214DF2073001F0EE
:103D90000DFB00214DF2083001F008FB5C214DF2D3
:103DA000093001F003FB00214DF20A3001F0FEFA68
:103DB00081214DF20B3001F0F9FA00214DF20C3067
:103DC00001F0F4FAA6214DF20D3001F0EFFA0021D6
:103DD0004DF20E3001F0EAFAE5214DF20F3001F01C
:103DE000E5FA01214DF2103001F0E0FA13214DF215
:103DF000113001F0DBFA01214DF2123001F0D6FA58
:103E000054214DF2133001F0D1FA01214DF214305A
:103E100001F0CCFA82214DF2153001F0C7FA0121F0
:103E20004DF2163001F0C2FACA214DF2173001F0FE
:103E3000BDFA02214DF2183001F0B8FA00214DF21E
:103E4000193001F0B3FA02214DF21A3001F0AEFA46
:103E500001214DF21B3001F0A9FA02214DF21C3074
:103E600001F0A4FA34214DF21D3001F09FFA022135
:103E70004DF21E3001F09AFA67214DF21F3001F029
:103E800095FA02214DF2203001F090FA84214DF292
:103E9000213001F08BFA02214DF2223001F086FA36
:103EA000A4214DF2233001F081FA02214DF2243099
:103EB00001F07CFAB7214DF2253001F077FA0221AA
:103EC0004DF2263001F072FACF214DF2273001F089
:103ED0006DFA02214DF2283001F068FADE214DF230
:103EE000293001F063FA02214DF22A3001F05EFA26
:103EF000F2214DF22B3001F059FA02214DF22C3013
:103F000001F054FAFE214DF22D3001F04FFA032159
:103F10004DF22E3001F04AFA10214DF22F3001F00F
:103F200045FA03214DF2303001F040FA33214DF2D1
:103F3000313001F03BFA03214DF2323001F036FA14
:103F40006D214DF2333001F031FA00214FF454402D
:103F500001F02CFA33214DF2014001F027FA002143
:103F60004DF2024001F022FA34214DF2034001F0FB
:103F70001DFA00214DF2044001F018FA3A214DF2E9
:103F8000054001F013FA00214DF2064001F00EFA4F
:103F90004A214DF2074001F009FA00214DF2084094
:103FA00001F004FA5C214DF2094001F0FFF9002113
:103FB0004DF20A4001F0FAF981214DF20B4001F077
:103FC000F5F900214DF20C4001F0F0F9A6214DF277
:103FD0000D4001F0EBF900214DF20E4001F0E6F941
:103FE000E5214DF20F4001F0E1F901214DF21040C1
:103FF00001F0DCF913214DF2114001F0D7F9012154
:104000004DF2124001F0D2F954214DF2134001F06B
:10401000CDF901214DF2144001F0C8F982214DF291
:10402000154001F0C3F901214DF2164001F0BEF92F
:10403000CA214DF2174001F0B9F902214DF21840A2
:1040400001F0B4F900214DF2194001F0AFF902215D
:104050004DF21A4001F0AAF901214DF21B4001F086
:10406000A5F902214DF21C4001F0A0F934214DF2D6
:104070001D4001F09BF902214DF21E4001F096F91E
:1040800067214DF21F4001F091F902214DF22040CD
:1040900001F08CF984214DF2214001F087F90221D1
:1040A0004DF2224001F082F9A4214DF2234001F0AB
:1040B0007DF902214DF2244001F078F9B7214DF24B
:1040C000254001F073F902214DF2264001F06EF90E
:1040D000CF214DF2274001F069F902214DF228402D
:1040E00001F064F9DE214DF2294001F05FF902216F
:1040F0004DF22A4001F05AF9F2214DF22B4001F025
:1041000055F902214DF22C4001F050F9FE214DF2FB
:104110002D4001F04BF903214DF22E4001F046F9FC
:1041200010214DF22F4001F041F903214DF23040B2
:1041300001F03CF933214DF2314001F037F9032110
:104140004DF2324001F032F96D214DF2334001F071
:104150002DF900214FF4554001F028F933214DF29B
:10416000015001F023F900214DF2025001F01EF937
:1041700034214DF2035001F019F900214DF20450A1
:1041800001F014F93A214DF2055001F00FF9002128
:104190004DF2065001F00AF94A214DF2075001F0A4
:1041A00005F900214DF2085001F000F95C214DF2B3
:1041B000095001F0FBF800214DF20A5001F0F6F829
:1041C00081214DF20B5001F0F1F800214DF20C501D
:1041D00001F0ECF8A6214DF20D5001F0E7F80021B6
:1041E0004DF20E5001F0E2F8E5214DF20F5001F0D2
:1041F000DDF801214DF2105001F0D8F813214DF2F5
:10420000115001F0D3F801214DF2125001F0CEF817
:1042100054214DF2135001F0C9F801214DF2145010
:1042200001F0C4F882214DF2155001F0BFF80121D0
:104230004DF2165001F0BAF8CA214DF2175001F0B4
:10424000B5F802214DF2185001F0B0F800214DF2FE
:10425000195001F0ABF802214DF21A5001F0A6F806
:1042600001214DF21B5001F0A1F802214DF21C502A
:1042700001F09CF834214DF21D5001F097F8022115
:104280004DF21E5001F092F867214DF21F5001F0DF
:104290008DF802214DF2205001F088F884214DF272
:1042A000215001F083F802214DF2225001F07EF8F6
:1042B000A4214DF2235001F079F802214DF224504F
:1042C00001F074F8B7214DF2255001F06FF802218A
:1042D0004DF2265001F06AF8CF214DF2275001F03F
:1042E00065F802214DF2285001F060F8DE214DF210
:1042F000295001F05BF802214DF22A5001F056F8E6
:10430000F2214DF22B5001F051F802214DF22C50C8
:1043100001F04CF8FE214DF22D5001F047F8032139
:104320004DF22E5001F042F810214DF22F5001F0C5
:104330003DF803214DF2305001F038F833214DF2B1
:10434000315001F033F803214DF2325001F02EF8D4
:104350006D214DF2335001F029F800214FF4564001
:1043600001F024F833214DF2016001F01FF8002123
:104370004DF2026001F01AF834214DF2036001F0B1
:1043800015F800214DF2046001F010F83A214DF2C9
:10439000056001F00BF800214DF2066001F006F80F
:1043A0004A214DF2076001F001F800214DF208604A
:1043B00000F0FCFF5C214DF2096000F0F7FF0021E6
:1043C0004DF20A6000F0F2FF81214DF20B6000F027
:1043D000EDFF00214DF20C6000F0E8FFA6214DF248
:1043E0000D6000F0E3FF00214DF20E6000F0DEFFF3
:1043F000E5214DF20F6000F0D9FF01214DF2106070
:1044000000F0D4FF13214DF2116000F0CFFF012125
:104410004DF2126000F0CAFF54214DF2136000F01B
:10442000C5FF01214DF2146000F0C0FF82214DF262
:10443000156000F0BBFF01214DF2166000F0B6FFE1
:10444000CA214DF2176000F0B1FF02214DF2186051
:1044500000F0ACFF00214DF2196000F0A7FF02212F
:104460004DF21A6000F0A2FF01214DF21B6000F036
:104470009DFF02214DF21C6000F098FF34214DF2A7
:104480001D6000F093FF02214DF21E6000F08EFFD0
:1044900067214DF21F6000F089FF02214DF220607C
:1044A00000F084FF84214DF2216000F07FFF0221A3
:1044B0004DF2226000F07AFFA4214DF2236000F05B
:1044C00075FF02214DF2246000F070FFB7214DF21C
:1044D000256000F06BFF02214DF2266000F066FFC0
:1044E000CF214DF2276000F061FF02214DF22860DC
:1044F00000F05CFFDE214DF2296000F057FF022141
:104500004DF22A6000F052FFF2214DF22B6000F0D4
:104510004DFF02214DF22C6000F048FFFE214DF2CC
:104520002D6000F043FF03214DF22E6000F03EFFAE
:1045300010214DF22F6000F039FF03214DF2306061
:1045400000F034FF33214DF2316000F02FFF0321E2
:104550004DF2326000F02AFF6D214DF2336000F021
:1045600025FF55214FF4704000F020FFAA214FF2A3
:10457000010000F01BFF52214FF2020000F016FF75
:1045800008214FF2030000F011FF00214FF2040058
:1045900000F00CFFCC214FF4314000F007FF002168
:1045A0004BF2011000F002FF05214FF4364000F0FD
:1045B000FDFE70214FF4374000F0F8FE70214BF201
:1045C000017000F0F3FE01214FF4384000F0EEFEE0
:1045D00003214BF6010000F0E9FE03214BF6020037
:1045E00000F0E4FE03214BF6030000F0DFFE0221A1
:1045F0004FF43C4000F0DAFE00214BF6014000F0A1
:10460000D5FE00214BF6024000F0D0FED0214FF441
:10461000494000F0CBFE02214CF6011000F0C6FE2E
:1046200050214CF6021000F0C1FE50214CF6031050
:1046300000F0BCFE50214CF6041000F0B7FE002143
:104640004FF4545000F0B2FE55214FF4685000F082
:10465000ADFE4FF4885000F093FE7820FDF724FE65
:104660004FF4245000F08CFE10BD10B5E22000F095
:1046700087FE1D2000F078FE022000F075FE042069
:1046800000F072FE6420FDF70FFEE02000F078FEDF
:10469000012000F069FE0A20FDF7EAFDE02000F0AD
:1046A0006FFE032000F060FE0C20FDF7E1FD01200D
:1046B00000F066FE0A20FDF7DBFDE62000F060FE5C
:1046C0002F2000F051FEFF2000F04EFEFF2000F0F2
:1046D0004BFEB02000F054FE202000F045FE0020EC
:1046E00000F042FE032000F03FFE40F21F3000F0D9
:1046F0003BFE012000F038FE40F2DF1000F034FEF7
:10470000002000F031FEB42000F03AFE042000F05A
:104710002BFE40F21F4000F027FE002000F024FE98
:104720002E2000F021FE002000F01EFE002000F0F0
:104730001BFE002000F018FE002000F015FEB62041
:1047400000F01EFE022000F00FFE4FF4037000F098
:104750000BFE002000F008FE172000F005FE1520DB
:1047600000F002FE002000F0FFFD002000F0FCFD44
:10477000F02000F005FE032000F0F6FD292000F0F7
:10478000FFFDD02000F0FCFD002000F0EDFDBE207C
:1047900000F0F6FD052000F0E7FDFE2000F0E4FD4E
:1047A000012000F0E1FD002000F0DEFD002000F01F
:1047B000DBFD002000F0D8FDB82000F0E1FD032073
:1047C00000F0D2FD012000F0CFFDBA2000F0D8FDAE
:1047D000012000F0C9FD10BD10B5112000F0D0FD82
:1047E0007820FDF745FD362000F0CAFD002000F0DE
:1047F000BBFD3A2000F0C4FD052000F0B5FDB2205D
:1048000000F0BEFD0C2000F0AFFD0C2000F0ACFD70
:10481000002000F0A9FD332000F0A6FD332000F0B9
:10482000A3FDB72000F0ACFD352000F09DFDBB20BE
:1048300000F0A6FD322000F097FDC02000F0A0FDA2
:104840000C2000F091FDC22000F09AFD012000F044
:104850008BFDC32000F094FD102000F085FDC420E6
:1048600000F08EFD202000F07FFDC62000F088FDC6
:104870000F2000F079FDD02000F082FDA42000F090
:1048800073FDA12000F070FDE02000F079FDD02044
:1048900000F06AFD002000F067FD022000F064FDDA
:1048A000072000F061FD0A2000F05EFD282000F0E6
:1048B0005BFD322000F058FD442000F055FD422001
:1048C00000F052FD062000F04FFD0E2000F04CFDE0
:1048D000122000F049FD142000F046FD172000F0E2
:1048E00043FDE12000F04CFDD02000F03DFD002014
:1048F00000F03AFD022000F037FD072000F034FD03
:104900000A2000F031FD282000F02EFD312000F0BB
:104910002BFD542000F028FD472000F025FD0E203F
:1049200000F022FD1C2000F01FFD172000F01CFDF0
:104930001B2000F019FD1E2000F016FD2A2000F0BB
:104940001FFD002000F010FD002000F00DFD0020F4
:1049500000F00AFDEF2000F007FD2B2000F010FD15
:10496000002000F001FD002000F0FEFC012000F01E
:10497000FBFC3F2000F0F8FC292000F001FD10BDF9
:104980002DE9F04F05460E4617469846DDF824A05F
:104990004FF0000B781B401C1FFA80FB344613E0DD
:1049A0002146284600F04AFB00F0F6FC4FF00009D3
:1049B00006E00749A1F800A009F101001FFA80F9FB
:1049C000D945F6DB601C84B24445E9DDBDE8F08FD3
:1049D0008000006C00B595B000BF00BF00200190C2
:1049E000FD48006840F04000FB4908600846006848
:1049F00000F04000019000BF00BF00BF00BF00BF3B
:104A0000002001900846006840F008000860084651
:104A1000006800F00800019000BF00BF00BF00BFA9
:104A200000BF002001900846006840F008000860C0
:104A30000846006800F00800019000BF00BF00BFFA
:104A400000BF00BF002001900846006840F0400011
:104A500008600846006800F04000019000BF00BFF9
:104A600000BF00BF00BF002001900846006840F072
:104A7000020008600846006800F00200019000BFD4
:104A800000BF00BF881410900220119001201290E6
:104A9000022013900C20149010A9D048FCF71CF8A9
:104AA0002020109010A9CE48FCF716F81020109086
:104AB00010A9CB48FCF710F84FF48050109010A9C3
:104AC000C848FCF709F84FF40040109001201190FD
:104AD00010A9C548FCF700F84FF02040C349086012
:104AE000C3484860062088600021C048C16010218A
:104AF000416100218161C16141624FF48051816255
:104B00000021C1624FF48041016300214163816350
:104B10000F20099000200A903C200B9000200F905D
:104B200005900920029000200390092004900020A5
:104B3000089002AA09A9AD48FCF730FD3220FDF724
:104B400097FBD32000F01CFC00F056F9A94988809F
:104B500000F052F9A749888000F04EF9A5498880F5
:104B6000084680884FF6FF7101EA0020A14988803D
:104B700000F042F99F49898808439E498880084689
:104B8000808849F2413188427DD0042000F0F8FB52
:104B900000F032F99749888000F02EF99549888015
:104BA00000F02AF993498880084680884FF6FF7103
:104BB00001EA00208F49888000F01EF98D4989881C
:104BC00008438C4988800846808848F252518842C0
:104BD00003D147F28970874988808648808847F2E8
:104BE00089718842D0D0D42000F0CAFB00F004F9CB
:104BF0008049888000F000F97E49888000F0FCF848
:104C00007C498880084680884FF6FF7101EA0020C1
:104C10007849888000F0F0F876498988084375491A
:104C200088800846808845F21031884262D055213C
:104C30004FF4704000F0BAFBAA214FF2010000F0DF
:104C4000B5FB52214FF2020000F0B0FB08214FF2F9
:104C5000030000F0ABFB01214FF2040000F0A6FBC3
:104C60004FF4454000F08CFB00F0C6F861498880A5
:104C7000084680884FF6FF7101EA00205D49888070
:104C80004CF2015000E035E000F07AFB00F0B4F89F
:104C9000584989880843574988800520FDF7E8FA74
:104CA0005448808845F21051884223D0A12000F05A
:104CB00067FB00F0A1F84F49888000F09DF84D494E
:104CC0008880084680884FF6FF7101EA0020494934
:104CD000888000F091F847498988084345498880D1
:104CE0000846808845F26171884203D141F663101D
:104CF000404988803F48808847F28971884202D1C4
:104D0000FFF76AFD25E03B48808849F2413188423F
:104D100002D1FDF79DFC1CE03648808845F2103139
:104D2000884202D1FDF7AAFD13E03248808845F29F
:104D30001051884202D1FEF71AFD0AE02D48808802
:104D400041F66311884204D1FFF78FFC642000F024
:104D5000DBFA2848808849F2413188420BD0254847
:104D6000808841F66311884205D02248808847F246
:104D70008971884209D10320029004901B490B6B72
:104D80008A68486802A9FBF7C9FD1A48808845F27D
:104D90001031884205D01748808845F2105188426A
:104DA00009D102200290049010490B6B8A68486870
:104DB00002A9FBF7B3FD0020FDF7A2FB00BF012213
:104DC000D1030948FBF79CFF00BF4FF6FF70FDF7CA
:104DD0007DFB15B000BD00003038024000180240D5
:104DE000000C02400014024000040240A402002013
:104DF000040100A0F402002008B5034800880090D8
:104E0000BDF8000008BD00008000006CF0B505464C
:104E10000024002788488079012805D186488088A9
:104E200041F66311884208D183488079F0B98248FD
:104E3000808841F66311884218D1082D15D2DFE829
:104E400005F00406080A0C0E101206250DE00725D1
:104E50000BE0042509E0052507E0012505E0002514
:104E600003E0032501E0022500BF00BF082D1CD28E
:104E7000DFE805F00406090C0F12151800BF14E056
:104E800044F0800411E044F040040EE044F0C0041B
:104E90000BE044F0200408E044F0600405E044F036
:104EA000A00402E044F0E00400BF00BF36276248DF
:104EB000808845F21051884200D13F025E488088C8
:104EC00049F24131884205D05B48808847F28971B8
:104ED000884201D144F008042146384600F066FAC1
:104EE0005548808841F6631188421DD004F02000A7
:104EF00068B15148008850494988884214DA4E48C0
:104F0000068840884C490880084646800CE04A489C
:104F1000008849494988884206DD47480688408814
:104F200045490880084646804348808845F210512C
:104F3000884252D14049488900F022FA002000F00E
:104F400013FA3D494989491C88B200F019FA00203A
:104F500000F00AFA38494989891C88B200F010FA31
:104F600035490988491EC1F30F2000F0FDF9324987
:104F70004989C91C88B200F003FA2F490978491EF3
:104F8000C8B200F0F1F92C49888900F0F9F9002045
:104F900000F0EAF928498989491C88B200F0F0F943
:104FA000002000F0E1F924498989891C88B200F0C9
:104FB000E7F921494988491EC1F30F2000F0D4F9CF
:104FC0001D498989C91C88B200F0DAF91A49897823
:104FD000491EC8B200F0C8F92DE01749488900F011
:104FE000CFF9002000F0C0F9002000F0BDF912490F
:104FF0000988491EC1F30F2000F0B6F90E4909785F
:10500000491EC8B200F0B0F90B49888900F0B8F920
:10501000002000F0A9F9002000F0A6F9064949880F
:10502000491EC1F30F2000F09FF903498978491EFA
:10503000C8B200F099F9F0BDF402002010B50246A4
:105040000C464548808841F66311884247D1424862
:105050008079A8B940480088401E801A82B23E4933
:10506000488900F08DF9002000F07EF9002000F062
:105070007BF9101200F078F9D0B200F075F916E063
:105080003549488900F07CF9101200F06DF9D0B272
:1050900000F06AF930490988491EC1F30F2000F079
:1050A00063F92D490978491EC8B200F05DF92A4913
:1050B000888900F065F9201200F056F9E0B200F09E
:1050C00053F925494988491EC1F30F2000F04CF9D6
:1050D00021498978491EC8B200F046F93AE01E48D5
:1050E000808845F21051884220D11B49488900F040
:1050F00047F9101200F038F917494989491C88B25C
:1051000000F03EF9D0B200F02FF91349888900F081
:1051100037F9201200F028F90F498989491C88B213
:1051200000F02EF9E0B200F01FF913E00A494889B7
:1051300000F026F9101200F017F9D0B200F014F9BF
:105140000549888900F01CF9201200F00DF9E0B241
:1051500000F00AF910BD0000F40200202DE9FC4F18
:1051600080460E4615461C46B3460020019000902E
:105170002046E31704EB5373DB1021464FEAE47C2F
:1051800004EB5C7C4FEAEC0CA4EBCC0CBCF1000F04
:1051900002D04FF0010C01E04FF0000C63442246B6
:1051A00004EBD27C4FEA6C0C03FB0CF3DBB20193F3
:1051B000A5F12000C5B20C2C06D0102C0BD0182C59
:1051C0000ED0202C18D112E005EB45002D4901EB43
:1051D0008000009012E02C4800EB051000900DE0DC
:1051E00005EBC500294901EB8000009006E0284846
:1051F00000EB8510009001E0BDE8FC8F00BF0027A8
:105200003AE0009810F807904FF0000A2EE009F0FD
:10521000800028B1314640460C9AFDF709FA07E0B4
:105220000B9828B91B48314602684046FDF700FA42
:105230004FEA49604FEA1069701C86B216484088F0
:10524000B04200DCD8E7A6EB0B00A0420AD15E46D4
:1052500008F101001FFA80F80F480088404500DC83
:10526000CAE706E00AF1010000F0FF0ABAF1080FF0
:10527000CDDB00BF781CC7B201988742C1DB00BFFD
:10528000BAE7000072710008E6750008D67B0008D6
:10529000328900082C000020F40200202DE9FC4F88
:1052A00004460D4690469946DDE90C7A0B9E04F0C3
:1052B000FF0B08EB04001FFA80F809EB05001FFA4A
:1052C00080F917E0444502DB5C46A81985B24D45DC
:1052D00000DB15E00020CDE9000A3A783346294684
:1052E0002046FFF73BFF304606EBD07104EB61012F
:1052F0008CB27F1C38787E2802DC38782028E1DAEE
:1053000000BFBDE8FC8F000070B52DED048B044696
:10531000BE2000F035F8052000F026F8204601F008
:1053200006FE41EC190B9FED0E0B53EC102B01F018
:1053300011FE41EC180B01F0CDFD85B2284600F0BE
:1053400013F8012000F010F8FF2000F00DF8002005
:1053500000F00AF8002000F007F8BDEC048B70BDE7
:10536000666666666666044001B5BDF8000000909A
:10537000BDF800000149088008BD00008000006CF5
:1053800001B5BDF800000090BDF80000014908809B
:1053900008BD00007E00006C0248008902490880B8
:1053A00070470000F40200207E00006C034A108069
:1053B0004FF0D842A2F88010704700007E00006CC9
:1053C00000B587B000BF00BF0020019020480068F2
:1053D00040F020001E4908600846006800F02000E8
:1053E000019000BF00BF00BF00BF00BF00200190C0
:1053F0000846006840F0200008600846006800F099
:105400002000019000BF00BF00BF4815029001209E
:10541000039004900220059002A90E48FBF75CFB64
:105420004FF48060029002A90A48FBF755FB00BFC9
:10543000012251020748FBF763FC00BF00BF0122B5
:1054400091020448FBF75CFC00BF07B000BD000000
:10545000303802400014024088B00025A8460024DD
:10546000A1460026FBF76AFC0723022208214FF41D
:10547000A87000F0BFFBA820FCF7F0FE4FF4E1306D
:1054800000F026FCB048416854208847FFF798FF99
:10549000FFF7A0FAFCF73AFF00F0B4FA002000F0A2
:1054A000F1F9022000F0EEF9012000F0EBF94FF4E1
:1054B0007840A6A110221346CDE900210290C8220F
:1054C00032211E20FFF7EAFE4FF47840A1A11022FE
:1054D0001346CDE900210290C82246211E20FFF785
:1054E000DDFE4FF478409EA110221346CDE9002145
:1054F0000290C8225A211E20FFF7D0FE4FF47840B8
:105500009BA110221346CDE900210290C8226E21F2
:105510001E20FFF7C3FE4FF478409BA110221346D4
:10552000CDE900210290C82282211E20FFF7B6FE9D
:105530001F209BA110221346CDE900210290C82212
:10554000A0213C20FFF7AAFE1F2098A1102213469D
:10555000CDE900210290C822B0211E20FFF79EFE57
:105560001F2096A110221346CDE900210290C822E7
:10557000C0211E20FFF792FE1F2094A11022134687
:10558000CDE900210290C822D0211E20FFF786FE1F
:10559000D8E00020FCF738FF07463846012F04D03A
:1055A00002281BD0042833D11EE04FF4006130469E
:1055B00000F010FA044684B1424688A12046FAF76A
:1055C00019FF1F2010210B46D122CDE900140290B3
:1055D0004FF482711E20FFF761FE19E0214630462C
:1055E00000F0E6F9002413E0701CC6B2032E00DBC5
:1055F00000261F217F4850F8260010221346CDE9CF
:1056000000200291C822A0213C20FFF747FE00BFE6
:1056100000BFA1452BD0A1464A4677A103A8FAF7BF
:10562000E9FE1F2003A910221346CDE900210290B4
:10563000D122F0211E20FFF731FE6CB11F20102176
:105640000B464FF48C72CDE9001402904FF4827136
:105650001E20FFF723FE0AE04FF6FF704FF494730D
:10566000D1224FF4827100901E20FFF789F90A20A1
:10567000FCF7FEFD08F1010000F0FF08142098FB84
:10568000F0F100FB118000285CD100F067F90546BD
:105690000A2095FBF0F100FB115A95FBF0FB5346F5
:1056A0005A4659A103A8FAF7A5FE1F2003A9102204
:1056B0001346CDE900210290C822B0218E20FFF7C9
:1056C000EDFD012000F04AF905460A2095FBF0F1B6
:1056D00000FB115A95FBF0FB53465A464AA103A81A
:1056E000FAF788FE1F2003A910221346CDE90021F6
:1056F0000290C822C0218E20FFF7D0FD022000F0CA
:105700002DF905460A2095FBF0F100FB115A95FB97
:10571000F0FB53465A463CA103A8FAF76BFE1F2044
:1057200003A910221346CDE900210290C822D021FE
:105730008E20FFF7B3FD00BF4FF400713548FBF733
:10574000D5FA00BF25E700008000002053544D33F8
:10575000320000004D414C4C4F43205445535400FF
:1057600041544F4D40414C49454E54454B0000007B
:105770004B4559303A4D616C6C6F6320262057526F
:1057800020262053686F77004B45595F55503A5398
:1057900052414D78204B4559313A467265650000BB
:1057A000205352414D494E20000000005352414DBC
:1057B000494E202020555345443A00005352414D54
:1057C00043434D2020555345443A00005352414D28
:1057D0004558202020555345443A00004D656D6FD3
:1057E0007279204D616C6C6F632054657374253041
:1057F00033640000000000205020416464723A309D
:10580000582530385800000025642E253031642595
:1058100025000000001402402DE9F04104460E4628
:105820001548005D38B9144820380168204688477B
:105830000120BDE8F081114850F82400B04219D988
:105840000F4850F82400B6FBF0F10B480C3850F824
:10585000240030F81120002508E0002306480C3809
:1058600050F824004F1920F817306D1C9542F4DBD6
:105870000020DEE70220DCE7940100200CA10008F4
:1058800000A1000830B504460225084951F824104B
:1058900001FB05F2064951F82400002100F07EF8D2
:1058A000012103480C30015530BD0000F4A0000870
:1058B000880100202DE9F04704460F460025A9463F
:1058C0002348005D20B922482038016820468847D7
:1058D0001FB94FF0FF30BDE8F0871E4850F8240094
:1058E000B7FBF0F61B4850F82400B7FBF0F100FBC3
:1058F000117000B1761C184850F82400451E22E0B3
:1059000013480C3850F8240030F8150010B909F18C
:10591000010901E04FF00009B14513D14FF0000833
:1059200009E00B480C3850F8240005EB080220F879
:10593000126008F10108B045F3D3064850F824007E
:105940006843C8E76D1E002DDADA4FF0FF30C2E77A
:105950009401002000A10008F4A0000810B5014641
:105960000023002207E00B4850F8210030F8120015
:1059700000B15B1C521C084850F821009042F2D83C
:105980004FF47A705843044C54F82140B0FBF4F0C3
:1059900080B210BD88010020F4A0000830B5034695
:1059A00001E003F8011B141EA2F10102F9D130BD80
:1059B00070B505460C4604B970BD054850F8250081
:1059C000261A31462846FFF727FF00BFF4E70000FC
:1059D0007C01002070B504460E4631462046FFF794
:1059E00069FF0546681C08B9002070BD024850F8E0
:1059F00024002844F9E700007C01002001460868E3
:105A00007047000000B58DB000BF00BF00200090BF
:105A10007148006840F040006F490860084600681F
:105A200000F04000009000BF00BF00BF00BF00BFFB
:105A3000002000900846006840F008000860084612
:105A4000006800F00800009000BF00BF00BF00BF6A
:105A500000BF002000900846006840F00800086081
:105A60000846006800F00800009000BF00BF00BFBB
:105A700000BF0020009058480830006840F0010046
:105A80005549083108600846006800F001000090A0
:105A900000BF00BF00BF002000904F48006840F0EA
:105AA00008004D4908600846006800F008000090B2
:105AB00000BF00BF00BF002000900846006840F013
:105AC000100008600846006800F01000009000BF59
:105AD00000BF00BF002000900846006840F0200092
